{
	"task2/function.sol": {
		"Function": {
			"abi": [
				{
					"inputs": [
						{
							"internalType": "uint256",
							"name": "",
							"type": "uint256"
						}
					],
					"name": "arr",
					"outputs": [
						{
							"internalType": "uint256",
							"name": "",
							"type": "uint256"
						}
					],
					"stateMutability": "view",
					"type": "function"
				},
				{
					"inputs": [
						{
							"internalType": "uint256[]",
							"name": "_arr",
							"type": "uint256[]"
						}
					],
					"name": "arrayInput",
					"outputs": [],
					"stateMutability": "nonpayable",
					"type": "function"
				},
				{
					"inputs": [],
					"name": "arrayOutput",
					"outputs": [
						{
							"internalType": "uint256[]",
							"name": "",
							"type": "uint256[]"
						}
					],
					"stateMutability": "view",
					"type": "function"
				},
				{
					"inputs": [],
					"name": "assigned",
					"outputs": [
						{
							"internalType": "uint256",
							"name": "x",
							"type": "uint256"
						},
						{
							"internalType": "bool",
							"name": "b",
							"type": "bool"
						},
						{
							"internalType": "uint256",
							"name": "y",
							"type": "uint256"
						}
					],
					"stateMutability": "pure",
					"type": "function"
				},
				{
					"inputs": [],
					"name": "callFunc",
					"outputs": [
						{
							"internalType": "uint256",
							"name": "",
							"type": "uint256"
						}
					],
					"stateMutability": "pure",
					"type": "function"
				},
				{
					"inputs": [],
					"name": "callFuncWithKeyValue",
					"outputs": [
						{
							"internalType": "uint256",
							"name": "",
							"type": "uint256"
						}
					],
					"stateMutability": "pure",
					"type": "function"
				},
				{
					"inputs": [],
					"name": "destructuringAssignments",
					"outputs": [
						{
							"internalType": "uint256",
							"name": "",
							"type": "uint256"
						},
						{
							"internalType": "bool",
							"name": "",
							"type": "bool"
						},
						{
							"internalType": "uint256",
							"name": "",
							"type": "uint256"
						},
						{
							"internalType": "uint256",
							"name": "",
							"type": "uint256"
						},
						{
							"internalType": "uint256",
							"name": "",
							"type": "uint256"
						}
					],
					"stateMutability": "pure",
					"type": "function"
				},
				{
					"inputs": [],
					"name": "named",
					"outputs": [
						{
							"internalType": "uint256",
							"name": "x",
							"type": "uint256"
						},
						{
							"internalType": "bool",
							"name": "b",
							"type": "bool"
						},
						{
							"internalType": "uint256",
							"name": "y",
							"type": "uint256"
						}
					],
					"stateMutability": "pure",
					"type": "function"
				},
				{
					"inputs": [],
					"name": "returnMany",
					"outputs": [
						{
							"internalType": "uint256",
							"name": "",
							"type": "uint256"
						},
						{
							"internalType": "bool",
							"name": "",
							"type": "bool"
						},
						{
							"internalType": "uint256",
							"name": "",
							"type": "uint256"
						}
					],
					"stateMutability": "pure",
					"type": "function"
				},
				{
					"inputs": [
						{
							"internalType": "uint256",
							"name": "x",
							"type": "uint256"
						},
						{
							"internalType": "uint256",
							"name": "y",
							"type": "uint256"
						},
						{
							"internalType": "uint256",
							"name": "z",
							"type": "uint256"
						},
						{
							"internalType": "address",
							"name": "a",
							"type": "address"
						},
						{
							"internalType": "bool",
							"name": "b",
							"type": "bool"
						},
						{
							"internalType": "string",
							"name": "c",
							"type": "string"
						}
					],
					"name": "someFuncWithManyInputs",
					"outputs": [
						{
							"internalType": "uint256",
							"name": "",
							"type": "uint256"
						}
					],
					"stateMutability": "pure",
					"type": "function"
				}
			],
			"devdoc": {
				"kind": "dev",
				"methods": {},
				"version": 1
			},
			"evm": {
				"assembly": "    /* \"task2/function.sol\":58:4536  contract Function {... */\n  mstore(0x40, 0x80)\n  callvalue\n  dup1\n  iszero\n  tag_1\n  jumpi\n  0x00\n  dup1\n  revert\ntag_1:\n  pop\n  dataSize(sub_0)\n  dup1\n  dataOffset(sub_0)\n  0x00\n  codecopy\n  0x00\n  return\nstop\n\nsub_0: assembly {\n        /* \"task2/function.sol\":58:4536  contract Function {... */\n      mstore(0x40, 0x80)\n      callvalue\n      dup1\n      iszero\n      tag_1\n      jumpi\n      0x00\n      dup1\n      revert\n    tag_1:\n      pop\n      jumpi(tag_2, lt(calldatasize, 0x04))\n      shr(0xe0, calldataload(0x00))\n      dup1\n      0x72057987\n      gt\n      tag_13\n      jumpi\n      dup1\n      0x72057987\n      eq\n      tag_8\n      jumpi\n      dup1\n      0x86887544\n      eq\n      tag_9\n      jumpi\n      dup1\n      0x9a7846b9\n      eq\n      tag_10\n      jumpi\n      dup1\n      0xadb4d990\n      eq\n      tag_11\n      jumpi\n      dup1\n      0xf4bb6e6b\n      eq\n      tag_12\n      jumpi\n      jump(tag_2)\n    tag_13:\n      dup1\n      0x127b4e08\n      eq\n      tag_3\n      jumpi\n      dup1\n      0x1990532b\n      eq\n      tag_4\n      jumpi\n      dup1\n      0x45f907a8\n      eq\n      tag_5\n      jumpi\n      dup1\n      0x68873440\n      eq\n      tag_6\n      jumpi\n      dup1\n      0x71e5ee5f\n      eq\n      tag_7\n      jumpi\n    tag_2:\n      0x00\n      dup1\n      revert\n        /* \"task2/function.sol\":3358:3545  function someFuncWithManyInputs(... */\n    tag_3:\n      tag_14\n      0x04\n      dup1\n      calldatasize\n      sub\n      dup2\n      add\n      swap1\n      tag_15\n      swap2\n      swap1\n      tag_16\n      jump\t// in\n    tag_15:\n      tag_17\n      jump\t// in\n    tag_14:\n      mload(0x40)\n      tag_18\n      swap2\n      swap1\n      tag_19\n      jump\t// in\n    tag_18:\n      mload(0x40)\n      dup1\n      swap2\n      sub\n      swap1\n      return\n        /* \"task2/function.sol\":2928:3017  function arrayOutput() public view returns (uint256[] memory) {... */\n    tag_4:\n      tag_20\n      tag_21\n      jump\t// in\n    tag_20:\n      mload(0x40)\n      tag_22\n      swap2\n      swap1\n      tag_23\n      jump\t// in\n    tag_22:\n      mload(0x40)\n      dup1\n      swap2\n      sub\n      swap1\n      return\n        /* \"task2/function.sol\":826:930  function named() public pure returns (uint256 x, bool b, uint256 y) {... */\n    tag_5:\n      tag_24\n      tag_25\n      jump\t// in\n    tag_24:\n      mload(0x40)\n      tag_26\n      swap4\n      swap3\n      swap2\n      swap1\n      tag_27\n      jump\t// in\n    tag_26:\n      mload(0x40)\n      dup1\n      swap2\n      sub\n      swap1\n      return\n        /* \"task2/function.sol\":1832:2106  function destructuringAssignments() public pure returns (uint256, bool, uint256, uint256, uint256){... */\n    tag_6:\n      tag_28\n      tag_29\n      jump\t// in\n    tag_28:\n      mload(0x40)\n      tag_30\n      swap6\n      swap5\n      swap4\n      swap3\n      swap2\n      swap1\n      tag_31\n      jump\t// in\n    tag_30:\n      mload(0x40)\n      dup1\n      swap2\n      sub\n      swap1\n      return\n        /* \"task2/function.sol\":2902:2922  uint256[] public arr */\n    tag_7:\n      tag_32\n      0x04\n      dup1\n      calldatasize\n      sub\n      dup2\n      add\n      swap1\n      tag_33\n      swap2\n      swap1\n      tag_34\n      jump\t// in\n    tag_33:\n      tag_35\n      jump\t// in\n    tag_32:\n      mload(0x40)\n      tag_36\n      swap2\n      swap1\n      tag_19\n      jump\t// in\n    tag_36:\n      mload(0x40)\n      dup1\n      swap2\n      sub\n      swap1\n      return\n        /* \"task2/function.sol\":4290:4534  function callFuncWithKeyValue() external pure returns (uint256) {... */\n    tag_8:\n      tag_37\n      tag_38\n      jump\t// in\n    tag_37:\n      mload(0x40)\n      tag_39\n      swap2\n      swap1\n      tag_19\n      jump\t// in\n    tag_39:\n      mload(0x40)\n      dup1\n      swap2\n      sub\n      swap1\n      return\n        /* \"task2/function.sol\":413:516  function returnMany() public pure returns (uint256, bool, uint256) {... */\n    tag_9:\n      tag_40\n      tag_41\n      jump\t// in\n    tag_40:\n      mload(0x40)\n      tag_42\n      swap4\n      swap3\n      swap2\n      swap1\n      tag_27\n      jump\t// in\n    tag_42:\n      mload(0x40)\n      dup1\n      swap2\n      sub\n      swap1\n      return\n        /* \"task2/function.sol\":3852:3982  function callFunc() external pure returns (uint256) {... */\n    tag_10:\n      tag_43\n      tag_44\n      jump\t// in\n    tag_43:\n      mload(0x40)\n      tag_45\n      swap2\n      swap1\n      tag_19\n      jump\t// in\n    tag_45:\n      mload(0x40)\n      dup1\n      swap2\n      sub\n      swap1\n      return\n        /* \"task2/function.sol\":1272:1398  function assigned() public pure returns (uint256 x, bool b, uint256 y) {... */\n    tag_11:\n      tag_46\n      tag_47\n      jump\t// in\n    tag_46:\n      mload(0x40)\n      tag_48\n      swap4\n      swap3\n      swap2\n      swap1\n      tag_27\n      jump\t// in\n    tag_48:\n      mload(0x40)\n      dup1\n      swap2\n      sub\n      swap1\n      return\n        /* \"task2/function.sol\":2397:2449  function arrayInput(uint256[] memory _arr) public {} */\n    tag_12:\n      tag_49\n      0x04\n      dup1\n      calldatasize\n      sub\n      dup2\n      add\n      swap1\n      tag_50\n      swap2\n      swap1\n      tag_51\n      jump\t// in\n    tag_50:\n      tag_52\n      jump\t// in\n    tag_49:\n      stop\n        /* \"task2/function.sol\":3358:3545  function someFuncWithManyInputs(... */\n    tag_17:\n        /* \"task2/function.sol\":3534:3541  uint256 */\n      0x00\n        /* \"task2/function.sol\":3358:3545  function someFuncWithManyInputs(... */\n      swap7\n      swap6\n      pop\n      pop\n      pop\n      pop\n      pop\n      pop\n      jump\t// out\n        /* \"task2/function.sol\":2928:3017  function arrayOutput() public view returns (uint256[] memory) {... */\n    tag_21:\n        /* \"task2/function.sol\":2972:2988  uint256[] memory */\n      0x60\n        /* \"task2/function.sol\":3007:3010  arr */\n      0x00\n        /* \"task2/function.sol\":3000:3010  return arr */\n      dup1\n      sload\n      dup1\n      0x20\n      mul\n      0x20\n      add\n      mload(0x40)\n      swap1\n      dup2\n      add\n      0x40\n      mstore\n      dup1\n      swap3\n      swap2\n      swap1\n      dup2\n      dup2\n      mstore\n      0x20\n      add\n      dup3\n      dup1\n      sload\n      dup1\n      iszero\n      tag_55\n      jumpi\n      0x20\n      mul\n      dup3\n      add\n      swap2\n      swap1\n      0x00\n      mstore\n      keccak256(0x00, 0x20)\n      swap1\n    tag_56:\n      dup2\n      sload\n      dup2\n      mstore\n      0x20\n      add\n      swap1\n      0x01\n      add\n      swap1\n      dup1\n      dup4\n      gt\n      tag_56\n      jumpi\n    tag_55:\n      pop\n      pop\n      pop\n      pop\n      pop\n      swap1\n      pop\n        /* \"task2/function.sol\":2928:3017  function arrayOutput() public view returns (uint256[] memory) {... */\n      swap1\n      jump\t// out\n        /* \"task2/function.sol\":826:930  function named() public pure returns (uint256 x, bool b, uint256 y) {... */\n    tag_25:\n        /* \"task2/function.sol\":864:873  uint256 x */\n      0x00\n        /* \"task2/function.sol\":875:881  bool b */\n      dup1\n        /* \"task2/function.sol\":883:892  uint256 y */\n      0x00\n        /* \"task2/function.sol\":912:913  1 */\n      0x01\n        /* \"task2/function.sol\":915:919  true */\n      dup1\n        /* \"task2/function.sol\":921:922  2 */\n      0x02\n        /* \"task2/function.sol\":904:923  return (1, true, 2) */\n      swap3\n      pop\n      swap3\n      pop\n      swap3\n      pop\n        /* \"task2/function.sol\":826:930  function named() public pure returns (uint256 x, bool b, uint256 y) {... */\n      swap1\n      swap2\n      swap3\n      jump\t// out\n        /* \"task2/function.sol\":1832:2106  function destructuringAssignments() public pure returns (uint256, bool, uint256, uint256, uint256){... */\n    tag_29:\n        /* \"task2/function.sol\":1889:1896  uint256 */\n      0x00\n        /* \"task2/function.sol\":1898:1902  bool */\n      dup1\n        /* \"task2/function.sol\":1904:1911  uint256 */\n      0x00\n        /* \"task2/function.sol\":1913:1920  uint256 */\n      dup1\n        /* \"task2/function.sol\":1922:1929  uint256 */\n      0x00\n        /* \"task2/function.sol\":1941:1950  uint256 i */\n      dup1\n        /* \"task2/function.sol\":1952:1958  bool b */\n      0x00\n        /* \"task2/function.sol\":1960:1969  uint256 j */\n      dup1\n        /* \"task2/function.sol\":1973:1985  returnMany() */\n      tag_59\n        /* \"task2/function.sol\":1973:1983  returnMany */\n      tag_41\n        /* \"task2/function.sol\":1973:1985  returnMany() */\n      jump\t// in\n    tag_59:\n        /* \"task2/function.sol\":1940:1985  (uint256 i, bool b, uint256 j) = returnMany() */\n      swap3\n      pop\n      swap3\n      pop\n      swap3\n      pop\n        /* \"task2/function.sol\":2032:2041  uint256 x */\n      0x00\n        /* \"task2/function.sol\":2044:2053  uint256 y */\n      dup1\n        /* \"task2/function.sol\":2058:2059  4 */\n      0x04\n        /* \"task2/function.sol\":2061:2062  5 */\n      0x05\n        /* \"task2/function.sol\":2064:2065  6 */\n      0x06\n        /* \"task2/function.sol\":2031:2066  (uint256 x,, uint256 y) = (4, 5, 6) */\n      swap3\n      pop\n      pop\n      swap2\n      pop\n        /* \"task2/function.sol\":2085:2086  i */\n      dup5\n        /* \"task2/function.sol\":2088:2089  b */\n      dup5\n        /* \"task2/function.sol\":2091:2092  j */\n      dup5\n        /* \"task2/function.sol\":2094:2095  x */\n      dup5\n        /* \"task2/function.sol\":2097:2098  y */\n      dup5\n        /* \"task2/function.sol\":2077:2099  return (i, b, j, x, y) */\n      swap10\n      pop\n      swap10\n      pop\n      swap10\n      pop\n      swap10\n      pop\n      swap10\n      pop\n      pop\n      pop\n      pop\n      pop\n      pop\n        /* \"task2/function.sol\":1832:2106  function destructuringAssignments() public pure returns (uint256, bool, uint256, uint256, uint256){... */\n      swap1\n      swap2\n      swap3\n      swap4\n      swap5\n      jump\t// out\n        /* \"task2/function.sol\":2902:2922  uint256[] public arr */\n    tag_35:\n      0x00\n      dup2\n      dup2\n      sload\n      dup2\n      lt\n      tag_60\n      jumpi\n      0x00\n      dup1\n      revert\n    tag_60:\n      swap1\n      0x00\n      mstore\n      keccak256(0x00, 0x20)\n      add\n      0x00\n      swap2\n      pop\n      swap1\n      pop\n      sload\n      dup2\n      jump\t// out\n        /* \"task2/function.sol\":4290:4534  function callFuncWithKeyValue() external pure returns (uint256) {... */\n    tag_38:\n        /* \"task2/function.sol\":4345:4352  uint256 */\n      0x00\n        /* \"task2/function.sol\":4371:4527  someFuncWithManyInputs({... */\n      tag_63\n        /* \"task2/function.sol\":4479:4480  1 */\n      0x01\n        /* \"task2/function.sol\":4497:4498  2 */\n      0x02\n        /* \"task2/function.sol\":4515:4516  3 */\n      0x03\n        /* \"task2/function.sol\":4419:4420  0 */\n      0x00\n        /* \"task2/function.sol\":4438:4442  true */\n      0x01\n        /* \"task2/function.sol\":4371:4527  someFuncWithManyInputs({... */\n      mload(0x40)\n      dup1\n      0x40\n      add\n      0x40\n      mstore\n      dup1\n      0x01\n      dup2\n      mstore\n      0x20\n      add\n      0x6300000000000000000000000000000000000000000000000000000000000000\n      dup2\n      mstore\n      pop\n        /* \"task2/function.sol\":4371:4393  someFuncWithManyInputs */\n      tag_17\n        /* \"task2/function.sol\":4371:4527  someFuncWithManyInputs({... */\n      jump\t// in\n    tag_63:\n        /* \"task2/function.sol\":4364:4527  return someFuncWithManyInputs({... */\n      swap1\n      pop\n        /* \"task2/function.sol\":4290:4534  function callFuncWithKeyValue() external pure returns (uint256) {... */\n      swap1\n      jump\t// out\n        /* \"task2/function.sol\":413:516  function returnMany() public pure returns (uint256, bool, uint256) {... */\n    tag_41:\n        /* \"task2/function.sol\":456:463  uint256 */\n      0x00\n        /* \"task2/function.sol\":465:469  bool */\n      dup1\n        /* \"task2/function.sol\":471:478  uint256 */\n      0x00\n        /* \"task2/function.sol\":498:499  1 */\n      0x01\n        /* \"task2/function.sol\":501:505  true */\n      dup1\n        /* \"task2/function.sol\":507:508  2 */\n      0x02\n        /* \"task2/function.sol\":490:509  return (1, true, 2) */\n      swap3\n      pop\n      swap3\n      pop\n      swap3\n      pop\n        /* \"task2/function.sol\":413:516  function returnMany() public pure returns (uint256, bool, uint256) {... */\n      swap1\n      swap2\n      swap3\n      jump\t// out\n        /* \"task2/function.sol\":3852:3982  function callFunc() external pure returns (uint256) {... */\n    tag_44:\n        /* \"task2/function.sol\":3895:3902  uint256 */\n      0x00\n        /* \"task2/function.sol\":3921:3975  someFuncWithManyInputs(1, 2, 3, address(0), true, \"c\") */\n      tag_66\n        /* \"task2/function.sol\":3944:3945  1 */\n      0x01\n        /* \"task2/function.sol\":3947:3948  2 */\n      0x02\n        /* \"task2/function.sol\":3950:3951  3 */\n      0x03\n        /* \"task2/function.sol\":3961:3962  0 */\n      0x00\n        /* \"task2/function.sol\":3965:3969  true */\n      0x01\n        /* \"task2/function.sol\":3921:3975  someFuncWithManyInputs(1, 2, 3, address(0), true, \"c\") */\n      mload(0x40)\n      dup1\n      0x40\n      add\n      0x40\n      mstore\n      dup1\n      0x01\n      dup2\n      mstore\n      0x20\n      add\n      0x6300000000000000000000000000000000000000000000000000000000000000\n      dup2\n      mstore\n      pop\n        /* \"task2/function.sol\":3921:3943  someFuncWithManyInputs */\n      tag_17\n        /* \"task2/function.sol\":3921:3975  someFuncWithManyInputs(1, 2, 3, address(0), true, \"c\") */\n      jump\t// in\n    tag_66:\n        /* \"task2/function.sol\":3914:3975  return someFuncWithManyInputs(1, 2, 3, address(0), true, \"c\") */\n      swap1\n      pop\n        /* \"task2/function.sol\":3852:3982  function callFunc() external pure returns (uint256) {... */\n      swap1\n      jump\t// out\n        /* \"task2/function.sol\":1272:1398  function assigned() public pure returns (uint256 x, bool b, uint256 y) {... */\n    tag_47:\n        /* \"task2/function.sol\":1313:1322  uint256 x */\n      0x00\n        /* \"task2/function.sol\":1324:1330  bool b */\n      dup1\n        /* \"task2/function.sol\":1332:1341  uint256 y */\n      0x00\n        /* \"task2/function.sol\":1357:1358  1 */\n      0x01\n        /* \"task2/function.sol\":1353:1358  x = 1 */\n      swap3\n      pop\n        /* \"task2/function.sol\":1372:1376  true */\n      0x01\n        /* \"task2/function.sol\":1368:1376  b = true */\n      swap2\n      pop\n        /* \"task2/function.sol\":1390:1391  2 */\n      0x02\n        /* \"task2/function.sol\":1386:1391  y = 2 */\n      swap1\n      pop\n        /* \"task2/function.sol\":1272:1398  function assigned() public pure returns (uint256 x, bool b, uint256 y) {... */\n      swap1\n      swap2\n      swap3\n      jump\t// out\n        /* \"task2/function.sol\":2397:2449  function arrayInput(uint256[] memory _arr) public {} */\n    tag_52:\n      pop\n      jump\t// out\n        /* \"#utility.yul\":7:82   */\n    tag_69:\n        /* \"#utility.yul\":40:46   */\n      0x00\n        /* \"#utility.yul\":73:75   */\n      0x40\n        /* \"#utility.yul\":67:76   */\n      mload\n        /* \"#utility.yul\":57:76   */\n      swap1\n      pop\n        /* \"#utility.yul\":7:82   */\n      swap1\n      jump\t// out\n        /* \"#utility.yul\":88:205   */\n    tag_70:\n        /* \"#utility.yul\":197:198   */\n      0x00\n        /* \"#utility.yul\":194:195   */\n      dup1\n        /* \"#utility.yul\":187:199   */\n      revert\n        /* \"#utility.yul\":211:328   */\n    tag_71:\n        /* \"#utility.yul\":320:321   */\n      0x00\n        /* \"#utility.yul\":317:318   */\n      dup1\n        /* \"#utility.yul\":310:322   */\n      revert\n        /* \"#utility.yul\":334:411   */\n    tag_72:\n        /* \"#utility.yul\":371:378   */\n      0x00\n        /* \"#utility.yul\":400:405   */\n      dup2\n        /* \"#utility.yul\":389:405   */\n      swap1\n      pop\n        /* \"#utility.yul\":334:411   */\n      swap2\n      swap1\n      pop\n      jump\t// out\n        /* \"#utility.yul\":417:539   */\n    tag_73:\n        /* \"#utility.yul\":490:514   */\n      tag_111\n        /* \"#utility.yul\":508:513   */\n      dup2\n        /* \"#utility.yul\":490:514   */\n      tag_72\n      jump\t// in\n    tag_111:\n        /* \"#utility.yul\":483:488   */\n      dup2\n        /* \"#utility.yul\":480:515   */\n      eq\n        /* \"#utility.yul\":470:533   */\n      tag_112\n      jumpi\n        /* \"#utility.yul\":529:530   */\n      0x00\n        /* \"#utility.yul\":526:527   */\n      dup1\n        /* \"#utility.yul\":519:531   */\n      revert\n        /* \"#utility.yul\":470:533   */\n    tag_112:\n        /* \"#utility.yul\":417:539   */\n      pop\n      jump\t// out\n        /* \"#utility.yul\":545:684   */\n    tag_74:\n        /* \"#utility.yul\":591:596   */\n      0x00\n        /* \"#utility.yul\":629:635   */\n      dup2\n        /* \"#utility.yul\":616:636   */\n      calldataload\n        /* \"#utility.yul\":607:636   */\n      swap1\n      pop\n        /* \"#utility.yul\":645:678   */\n      tag_114\n        /* \"#utility.yul\":672:677   */\n      dup2\n        /* \"#utility.yul\":645:678   */\n      tag_73\n      jump\t// in\n    tag_114:\n        /* \"#utility.yul\":545:684   */\n      swap3\n      swap2\n      pop\n      pop\n      jump\t// out\n        /* \"#utility.yul\":690:816   */\n    tag_75:\n        /* \"#utility.yul\":727:734   */\n      0x00\n        /* \"#utility.yul\":767:809   */\n      0xffffffffffffffffffffffffffffffffffffffff\n        /* \"#utility.yul\":760:765   */\n      dup3\n        /* \"#utility.yul\":756:810   */\n      and\n        /* \"#utility.yul\":745:810   */\n      swap1\n      pop\n        /* \"#utility.yul\":690:816   */\n      swap2\n      swap1\n      pop\n      jump\t// out\n        /* \"#utility.yul\":822:918   */\n    tag_76:\n        /* \"#utility.yul\":859:866   */\n      0x00\n        /* \"#utility.yul\":888:912   */\n      tag_117\n        /* \"#utility.yul\":906:911   */\n      dup3\n        /* \"#utility.yul\":888:912   */\n      tag_75\n      jump\t// in\n    tag_117:\n        /* \"#utility.yul\":877:912   */\n      swap1\n      pop\n        /* \"#utility.yul\":822:918   */\n      swap2\n      swap1\n      pop\n      jump\t// out\n        /* \"#utility.yul\":924:1046   */\n    tag_77:\n        /* \"#utility.yul\":997:1021   */\n      tag_119\n        /* \"#utility.yul\":1015:1020   */\n      dup2\n        /* \"#utility.yul\":997:1021   */\n      tag_76\n      jump\t// in\n    tag_119:\n        /* \"#utility.yul\":990:995   */\n      dup2\n        /* \"#utility.yul\":987:1022   */\n      eq\n        /* \"#utility.yul\":977:1040   */\n      tag_120\n      jumpi\n        /* \"#utility.yul\":1036:1037   */\n      0x00\n        /* \"#utility.yul\":1033:1034   */\n      dup1\n        /* \"#utility.yul\":1026:1038   */\n      revert\n        /* \"#utility.yul\":977:1040   */\n    tag_120:\n        /* \"#utility.yul\":924:1046   */\n      pop\n      jump\t// out\n        /* \"#utility.yul\":1052:1191   */\n    tag_78:\n        /* \"#utility.yul\":1098:1103   */\n      0x00\n        /* \"#utility.yul\":1136:1142   */\n      dup2\n        /* \"#utility.yul\":1123:1143   */\n      calldataload\n        /* \"#utility.yul\":1114:1143   */\n      swap1\n      pop\n        /* \"#utility.yul\":1152:1185   */\n      tag_122\n        /* \"#utility.yul\":1179:1184   */\n      dup2\n        /* \"#utility.yul\":1152:1185   */\n      tag_77\n      jump\t// in\n    tag_122:\n        /* \"#utility.yul\":1052:1191   */\n      swap3\n      swap2\n      pop\n      pop\n      jump\t// out\n        /* \"#utility.yul\":1197:1287   */\n    tag_79:\n        /* \"#utility.yul\":1231:1238   */\n      0x00\n        /* \"#utility.yul\":1274:1279   */\n      dup2\n        /* \"#utility.yul\":1267:1280   */\n      iszero\n        /* \"#utility.yul\":1260:1281   */\n      iszero\n        /* \"#utility.yul\":1249:1281   */\n      swap1\n      pop\n        /* \"#utility.yul\":1197:1287   */\n      swap2\n      swap1\n      pop\n      jump\t// out\n        /* \"#utility.yul\":1293:1409   */\n    tag_80:\n        /* \"#utility.yul\":1363:1384   */\n      tag_125\n        /* \"#utility.yul\":1378:1383   */\n      dup2\n        /* \"#utility.yul\":1363:1384   */\n      tag_79\n      jump\t// in\n    tag_125:\n        /* \"#utility.yul\":1356:1361   */\n      dup2\n        /* \"#utility.yul\":1353:1385   */\n      eq\n        /* \"#utility.yul\":1343:1403   */\n      tag_126\n      jumpi\n        /* \"#utility.yul\":1399:1400   */\n      0x00\n        /* \"#utility.yul\":1396:1397   */\n      dup1\n        /* \"#utility.yul\":1389:1401   */\n      revert\n        /* \"#utility.yul\":1343:1403   */\n    tag_126:\n        /* \"#utility.yul\":1293:1409   */\n      pop\n      jump\t// out\n        /* \"#utility.yul\":1415:1548   */\n    tag_81:\n        /* \"#utility.yul\":1458:1463   */\n      0x00\n        /* \"#utility.yul\":1496:1502   */\n      dup2\n        /* \"#utility.yul\":1483:1503   */\n      calldataload\n        /* \"#utility.yul\":1474:1503   */\n      swap1\n      pop\n        /* \"#utility.yul\":1512:1542   */\n      tag_128\n        /* \"#utility.yul\":1536:1541   */\n      dup2\n        /* \"#utility.yul\":1512:1542   */\n      tag_80\n      jump\t// in\n    tag_128:\n        /* \"#utility.yul\":1415:1548   */\n      swap3\n      swap2\n      pop\n      pop\n      jump\t// out\n        /* \"#utility.yul\":1554:1671   */\n    tag_82:\n        /* \"#utility.yul\":1663:1664   */\n      0x00\n        /* \"#utility.yul\":1660:1661   */\n      dup1\n        /* \"#utility.yul\":1653:1665   */\n      revert\n        /* \"#utility.yul\":1677:1794   */\n    tag_83:\n        /* \"#utility.yul\":1786:1787   */\n      0x00\n        /* \"#utility.yul\":1783:1784   */\n      dup1\n        /* \"#utility.yul\":1776:1788   */\n      revert\n        /* \"#utility.yul\":1800:1902   */\n    tag_84:\n        /* \"#utility.yul\":1841:1847   */\n      0x00\n        /* \"#utility.yul\":1892:1894   */\n      0x1f\n        /* \"#utility.yul\":1888:1895   */\n      not\n        /* \"#utility.yul\":1883:1885   */\n      0x1f\n        /* \"#utility.yul\":1876:1881   */\n      dup4\n        /* \"#utility.yul\":1872:1886   */\n      add\n        /* \"#utility.yul\":1868:1896   */\n      and\n        /* \"#utility.yul\":1858:1896   */\n      swap1\n      pop\n        /* \"#utility.yul\":1800:1902   */\n      swap2\n      swap1\n      pop\n      jump\t// out\n        /* \"#utility.yul\":1908:2088   */\n    tag_85:\n        /* \"#utility.yul\":1956:2033   */\n      0x4e487b7100000000000000000000000000000000000000000000000000000000\n        /* \"#utility.yul\":1953:1954   */\n      0x00\n        /* \"#utility.yul\":1946:2034   */\n      mstore\n        /* \"#utility.yul\":2053:2057   */\n      0x41\n        /* \"#utility.yul\":2050:2051   */\n      0x04\n        /* \"#utility.yul\":2043:2058   */\n      mstore\n        /* \"#utility.yul\":2077:2081   */\n      0x24\n        /* \"#utility.yul\":2074:2075   */\n      0x00\n        /* \"#utility.yul\":2067:2082   */\n      revert\n        /* \"#utility.yul\":2094:2375   */\n    tag_86:\n        /* \"#utility.yul\":2177:2204   */\n      tag_134\n        /* \"#utility.yul\":2199:2203   */\n      dup3\n        /* \"#utility.yul\":2177:2204   */\n      tag_84\n      jump\t// in\n    tag_134:\n        /* \"#utility.yul\":2169:2175   */\n      dup2\n        /* \"#utility.yul\":2165:2205   */\n      add\n        /* \"#utility.yul\":2307:2313   */\n      dup2\n        /* \"#utility.yul\":2295:2305   */\n      dup2\n        /* \"#utility.yul\":2292:2314   */\n      lt\n        /* \"#utility.yul\":2271:2289   */\n      0xffffffffffffffff\n        /* \"#utility.yul\":2259:2269   */\n      dup3\n        /* \"#utility.yul\":2256:2290   */\n      gt\n        /* \"#utility.yul\":2253:2315   */\n      or\n        /* \"#utility.yul\":2250:2338   */\n      iszero\n      tag_135\n      jumpi\n        /* \"#utility.yul\":2318:2336   */\n      tag_136\n      tag_85\n      jump\t// in\n    tag_136:\n        /* \"#utility.yul\":2250:2338   */\n    tag_135:\n        /* \"#utility.yul\":2358:2368   */\n      dup1\n        /* \"#utility.yul\":2354:2356   */\n      0x40\n        /* \"#utility.yul\":2347:2369   */\n      mstore\n        /* \"#utility.yul\":2137:2375   */\n      pop\n        /* \"#utility.yul\":2094:2375   */\n      pop\n      pop\n      jump\t// out\n        /* \"#utility.yul\":2381:2510   */\n    tag_87:\n        /* \"#utility.yul\":2415:2421   */\n      0x00\n        /* \"#utility.yul\":2442:2462   */\n      tag_138\n      tag_69\n      jump\t// in\n    tag_138:\n        /* \"#utility.yul\":2432:2462   */\n      swap1\n      pop\n        /* \"#utility.yul\":2471:2504   */\n      tag_139\n        /* \"#utility.yul\":2499:2503   */\n      dup3\n        /* \"#utility.yul\":2491:2497   */\n      dup3\n        /* \"#utility.yul\":2471:2504   */\n      tag_86\n      jump\t// in\n    tag_139:\n        /* \"#utility.yul\":2381:2510   */\n      swap2\n      swap1\n      pop\n      jump\t// out\n        /* \"#utility.yul\":2516:2824   */\n    tag_88:\n        /* \"#utility.yul\":2578:2582   */\n      0x00\n        /* \"#utility.yul\":2668:2686   */\n      0xffffffffffffffff\n        /* \"#utility.yul\":2660:2666   */\n      dup3\n        /* \"#utility.yul\":2657:2687   */\n      gt\n        /* \"#utility.yul\":2654:2710   */\n      iszero\n      tag_141\n      jumpi\n        /* \"#utility.yul\":2690:2708   */\n      tag_142\n      tag_85\n      jump\t// in\n    tag_142:\n        /* \"#utility.yul\":2654:2710   */\n    tag_141:\n        /* \"#utility.yul\":2728:2757   */\n      tag_143\n        /* \"#utility.yul\":2750:2756   */\n      dup3\n        /* \"#utility.yul\":2728:2757   */\n      tag_84\n      jump\t// in\n    tag_143:\n        /* \"#utility.yul\":2720:2757   */\n      swap1\n      pop\n        /* \"#utility.yul\":2812:2816   */\n      0x20\n        /* \"#utility.yul\":2806:2810   */\n      dup2\n        /* \"#utility.yul\":2802:2817   */\n      add\n        /* \"#utility.yul\":2794:2817   */\n      swap1\n      pop\n        /* \"#utility.yul\":2516:2824   */\n      swap2\n      swap1\n      pop\n      jump\t// out\n        /* \"#utility.yul\":2830:2976   */\n    tag_89:\n        /* \"#utility.yul\":2927:2933   */\n      dup3\n        /* \"#utility.yul\":2922:2925   */\n      dup2\n        /* \"#utility.yul\":2917:2920   */\n      dup4\n        /* \"#utility.yul\":2904:2934   */\n      calldatacopy\n        /* \"#utility.yul\":2968:2969   */\n      0x00\n        /* \"#utility.yul\":2959:2965   */\n      dup4\n        /* \"#utility.yul\":2954:2957   */\n      dup4\n        /* \"#utility.yul\":2950:2966   */\n      add\n        /* \"#utility.yul\":2943:2970   */\n      mstore\n        /* \"#utility.yul\":2830:2976   */\n      pop\n      pop\n      pop\n      jump\t// out\n        /* \"#utility.yul\":2982:3407   */\n    tag_90:\n        /* \"#utility.yul\":3060:3065   */\n      0x00\n        /* \"#utility.yul\":3085:3151   */\n      tag_146\n        /* \"#utility.yul\":3101:3150   */\n      tag_147\n        /* \"#utility.yul\":3143:3149   */\n      dup5\n        /* \"#utility.yul\":3101:3150   */\n      tag_88\n      jump\t// in\n    tag_147:\n        /* \"#utility.yul\":3085:3151   */\n      tag_87\n      jump\t// in\n    tag_146:\n        /* \"#utility.yul\":3076:3151   */\n      swap1\n      pop\n        /* \"#utility.yul\":3174:3180   */\n      dup3\n        /* \"#utility.yul\":3167:3172   */\n      dup2\n        /* \"#utility.yul\":3160:3181   */\n      mstore\n        /* \"#utility.yul\":3212:3216   */\n      0x20\n        /* \"#utility.yul\":3205:3210   */\n      dup2\n        /* \"#utility.yul\":3201:3217   */\n      add\n        /* \"#utility.yul\":3250:3253   */\n      dup5\n        /* \"#utility.yul\":3241:3247   */\n      dup5\n        /* \"#utility.yul\":3236:3239   */\n      dup5\n        /* \"#utility.yul\":3232:3248   */\n      add\n        /* \"#utility.yul\":3229:3254   */\n      gt\n        /* \"#utility.yul\":3226:3338   */\n      iszero\n      tag_148\n      jumpi\n        /* \"#utility.yul\":3257:3336   */\n      tag_149\n      tag_83\n      jump\t// in\n    tag_149:\n        /* \"#utility.yul\":3226:3338   */\n    tag_148:\n        /* \"#utility.yul\":3347:3401   */\n      tag_150\n        /* \"#utility.yul\":3394:3400   */\n      dup5\n        /* \"#utility.yul\":3389:3392   */\n      dup3\n        /* \"#utility.yul\":3384:3387   */\n      dup6\n        /* \"#utility.yul\":3347:3401   */\n      tag_89\n      jump\t// in\n    tag_150:\n        /* \"#utility.yul\":3066:3407   */\n      pop\n        /* \"#utility.yul\":2982:3407   */\n      swap4\n      swap3\n      pop\n      pop\n      pop\n      jump\t// out\n        /* \"#utility.yul\":3427:3767   */\n    tag_91:\n        /* \"#utility.yul\":3483:3488   */\n      0x00\n        /* \"#utility.yul\":3532:3535   */\n      dup3\n        /* \"#utility.yul\":3525:3529   */\n      0x1f\n        /* \"#utility.yul\":3517:3523   */\n      dup4\n        /* \"#utility.yul\":3513:3530   */\n      add\n        /* \"#utility.yul\":3509:3536   */\n      slt\n        /* \"#utility.yul\":3499:3621   */\n      tag_152\n      jumpi\n        /* \"#utility.yul\":3540:3619   */\n      tag_153\n      tag_82\n      jump\t// in\n    tag_153:\n        /* \"#utility.yul\":3499:3621   */\n    tag_152:\n        /* \"#utility.yul\":3657:3663   */\n      dup2\n        /* \"#utility.yul\":3644:3664   */\n      calldataload\n        /* \"#utility.yul\":3682:3761   */\n      tag_154\n        /* \"#utility.yul\":3757:3760   */\n      dup5\n        /* \"#utility.yul\":3749:3755   */\n      dup3\n        /* \"#utility.yul\":3742:3746   */\n      0x20\n        /* \"#utility.yul\":3734:3740   */\n      dup7\n        /* \"#utility.yul\":3730:3747   */\n      add\n        /* \"#utility.yul\":3682:3761   */\n      tag_90\n      jump\t// in\n    tag_154:\n        /* \"#utility.yul\":3673:3761   */\n      swap2\n      pop\n        /* \"#utility.yul\":3489:3767   */\n      pop\n        /* \"#utility.yul\":3427:3767   */\n      swap3\n      swap2\n      pop\n      pop\n      jump\t// out\n        /* \"#utility.yul\":3773:5004   */\n    tag_16:\n        /* \"#utility.yul\":3884:3890   */\n      0x00\n        /* \"#utility.yul\":3892:3898   */\n      dup1\n        /* \"#utility.yul\":3900:3906   */\n      0x00\n        /* \"#utility.yul\":3908:3914   */\n      dup1\n        /* \"#utility.yul\":3916:3922   */\n      0x00\n        /* \"#utility.yul\":3924:3930   */\n      dup1\n        /* \"#utility.yul\":3973:3976   */\n      0xc0\n        /* \"#utility.yul\":3961:3970   */\n      dup8\n        /* \"#utility.yul\":3952:3959   */\n      dup10\n        /* \"#utility.yul\":3948:3971   */\n      sub\n        /* \"#utility.yul\":3944:3977   */\n      slt\n        /* \"#utility.yul\":3941:4061   */\n      iszero\n      tag_156\n      jumpi\n        /* \"#utility.yul\":3980:4059   */\n      tag_157\n      tag_70\n      jump\t// in\n    tag_157:\n        /* \"#utility.yul\":3941:4061   */\n    tag_156:\n        /* \"#utility.yul\":4100:4101   */\n      0x00\n        /* \"#utility.yul\":4125:4178   */\n      tag_158\n        /* \"#utility.yul\":4170:4177   */\n      dup10\n        /* \"#utility.yul\":4161:4167   */\n      dup3\n        /* \"#utility.yul\":4150:4159   */\n      dup11\n        /* \"#utility.yul\":4146:4168   */\n      add\n        /* \"#utility.yul\":4125:4178   */\n      tag_74\n      jump\t// in\n    tag_158:\n        /* \"#utility.yul\":4115:4178   */\n      swap7\n      pop\n        /* \"#utility.yul\":4071:4188   */\n      pop\n        /* \"#utility.yul\":4227:4229   */\n      0x20\n        /* \"#utility.yul\":4253:4306   */\n      tag_159\n        /* \"#utility.yul\":4298:4305   */\n      dup10\n        /* \"#utility.yul\":4289:4295   */\n      dup3\n        /* \"#utility.yul\":4278:4287   */\n      dup11\n        /* \"#utility.yul\":4274:4296   */\n      add\n        /* \"#utility.yul\":4253:4306   */\n      tag_74\n      jump\t// in\n    tag_159:\n        /* \"#utility.yul\":4243:4306   */\n      swap6\n      pop\n        /* \"#utility.yul\":4198:4316   */\n      pop\n        /* \"#utility.yul\":4355:4357   */\n      0x40\n        /* \"#utility.yul\":4381:4434   */\n      tag_160\n        /* \"#utility.yul\":4426:4433   */\n      dup10\n        /* \"#utility.yul\":4417:4423   */\n      dup3\n        /* \"#utility.yul\":4406:4415   */\n      dup11\n        /* \"#utility.yul\":4402:4424   */\n      add\n        /* \"#utility.yul\":4381:4434   */\n      tag_74\n      jump\t// in\n    tag_160:\n        /* \"#utility.yul\":4371:4434   */\n      swap5\n      pop\n        /* \"#utility.yul\":4326:4444   */\n      pop\n        /* \"#utility.yul\":4483:4485   */\n      0x60\n        /* \"#utility.yul\":4509:4562   */\n      tag_161\n        /* \"#utility.yul\":4554:4561   */\n      dup10\n        /* \"#utility.yul\":4545:4551   */\n      dup3\n        /* \"#utility.yul\":4534:4543   */\n      dup11\n        /* \"#utility.yul\":4530:4552   */\n      add\n        /* \"#utility.yul\":4509:4562   */\n      tag_78\n      jump\t// in\n    tag_161:\n        /* \"#utility.yul\":4499:4562   */\n      swap4\n      pop\n        /* \"#utility.yul\":4454:4572   */\n      pop\n        /* \"#utility.yul\":4611:4614   */\n      0x80\n        /* \"#utility.yul\":4638:4688   */\n      tag_162\n        /* \"#utility.yul\":4680:4687   */\n      dup10\n        /* \"#utility.yul\":4671:4677   */\n      dup3\n        /* \"#utility.yul\":4660:4669   */\n      dup11\n        /* \"#utility.yul\":4656:4678   */\n      add\n        /* \"#utility.yul\":4638:4688   */\n      tag_81\n      jump\t// in\n    tag_162:\n        /* \"#utility.yul\":4628:4688   */\n      swap3\n      pop\n        /* \"#utility.yul\":4582:4698   */\n      pop\n        /* \"#utility.yul\":4765:4768   */\n      0xa0\n        /* \"#utility.yul\":4754:4763   */\n      dup8\n        /* \"#utility.yul\":4750:4769   */\n      add\n        /* \"#utility.yul\":4737:4770   */\n      calldataload\n        /* \"#utility.yul\":4797:4815   */\n      0xffffffffffffffff\n        /* \"#utility.yul\":4789:4795   */\n      dup2\n        /* \"#utility.yul\":4786:4816   */\n      gt\n        /* \"#utility.yul\":4783:4900   */\n      iszero\n      tag_163\n      jumpi\n        /* \"#utility.yul\":4819:4898   */\n      tag_164\n      tag_71\n      jump\t// in\n    tag_164:\n        /* \"#utility.yul\":4783:4900   */\n    tag_163:\n        /* \"#utility.yul\":4924:4987   */\n      tag_165\n        /* \"#utility.yul\":4979:4986   */\n      dup10\n        /* \"#utility.yul\":4970:4976   */\n      dup3\n        /* \"#utility.yul\":4959:4968   */\n      dup11\n        /* \"#utility.yul\":4955:4977   */\n      add\n        /* \"#utility.yul\":4924:4987   */\n      tag_91\n      jump\t// in\n    tag_165:\n        /* \"#utility.yul\":4914:4987   */\n      swap2\n      pop\n        /* \"#utility.yul\":4708:4997   */\n      pop\n        /* \"#utility.yul\":3773:5004   */\n      swap3\n      swap6\n      pop\n      swap3\n      swap6\n      pop\n      swap3\n      swap6\n      jump\t// out\n        /* \"#utility.yul\":5010:5128   */\n    tag_92:\n        /* \"#utility.yul\":5097:5121   */\n      tag_167\n        /* \"#utility.yul\":5115:5120   */\n      dup2\n        /* \"#utility.yul\":5097:5121   */\n      tag_72\n      jump\t// in\n    tag_167:\n        /* \"#utility.yul\":5092:5095   */\n      dup3\n        /* \"#utility.yul\":5085:5122   */\n      mstore\n        /* \"#utility.yul\":5010:5128   */\n      pop\n      pop\n      jump\t// out\n        /* \"#utility.yul\":5134:5356   */\n    tag_19:\n        /* \"#utility.yul\":5227:5231   */\n      0x00\n        /* \"#utility.yul\":5265:5267   */\n      0x20\n        /* \"#utility.yul\":5254:5263   */\n      dup3\n        /* \"#utility.yul\":5250:5268   */\n      add\n        /* \"#utility.yul\":5242:5268   */\n      swap1\n      pop\n        /* \"#utility.yul\":5278:5349   */\n      tag_169\n        /* \"#utility.yul\":5346:5347   */\n      0x00\n        /* \"#utility.yul\":5335:5344   */\n      dup4\n        /* \"#utility.yul\":5331:5348   */\n      add\n        /* \"#utility.yul\":5322:5328   */\n      dup5\n        /* \"#utility.yul\":5278:5349   */\n      tag_92\n      jump\t// in\n    tag_169:\n        /* \"#utility.yul\":5134:5356   */\n      swap3\n      swap2\n      pop\n      pop\n      jump\t// out\n        /* \"#utility.yul\":5362:5476   */\n    tag_93:\n        /* \"#utility.yul\":5429:5435   */\n      0x00\n        /* \"#utility.yul\":5463:5468   */\n      dup2\n        /* \"#utility.yul\":5457:5469   */\n      mload\n        /* \"#utility.yul\":5447:5469   */\n      swap1\n      pop\n        /* \"#utility.yul\":5362:5476   */\n      swap2\n      swap1\n      pop\n      jump\t// out\n        /* \"#utility.yul\":5482:5666   */\n    tag_94:\n        /* \"#utility.yul\":5581:5592   */\n      0x00\n        /* \"#utility.yul\":5615:5621   */\n      dup3\n        /* \"#utility.yul\":5610:5613   */\n      dup3\n        /* \"#utility.yul\":5603:5622   */\n      mstore\n        /* \"#utility.yul\":5655:5659   */\n      0x20\n        /* \"#utility.yul\":5650:5653   */\n      dup3\n        /* \"#utility.yul\":5646:5660   */\n      add\n        /* \"#utility.yul\":5631:5660   */\n      swap1\n      pop\n        /* \"#utility.yul\":5482:5666   */\n      swap3\n      swap2\n      pop\n      pop\n      jump\t// out\n        /* \"#utility.yul\":5672:5804   */\n    tag_95:\n        /* \"#utility.yul\":5739:5743   */\n      0x00\n        /* \"#utility.yul\":5762:5765   */\n      dup2\n        /* \"#utility.yul\":5754:5765   */\n      swap1\n      pop\n        /* \"#utility.yul\":5792:5796   */\n      0x20\n        /* \"#utility.yul\":5787:5790   */\n      dup3\n        /* \"#utility.yul\":5783:5797   */\n      add\n        /* \"#utility.yul\":5775:5797   */\n      swap1\n      pop\n        /* \"#utility.yul\":5672:5804   */\n      swap2\n      swap1\n      pop\n      jump\t// out\n        /* \"#utility.yul\":5810:5918   */\n    tag_96:\n        /* \"#utility.yul\":5887:5911   */\n      tag_174\n        /* \"#utility.yul\":5905:5910   */\n      dup2\n        /* \"#utility.yul\":5887:5911   */\n      tag_72\n      jump\t// in\n    tag_174:\n        /* \"#utility.yul\":5882:5885   */\n      dup3\n        /* \"#utility.yul\":5875:5912   */\n      mstore\n        /* \"#utility.yul\":5810:5918   */\n      pop\n      pop\n      jump\t// out\n        /* \"#utility.yul\":5924:6103   */\n    tag_97:\n        /* \"#utility.yul\":5993:6003   */\n      0x00\n        /* \"#utility.yul\":6014:6060   */\n      tag_176\n        /* \"#utility.yul\":6056:6059   */\n      dup4\n        /* \"#utility.yul\":6048:6054   */\n      dup4\n        /* \"#utility.yul\":6014:6060   */\n      tag_96\n      jump\t// in\n    tag_176:\n        /* \"#utility.yul\":6092:6096   */\n      0x20\n        /* \"#utility.yul\":6087:6090   */\n      dup4\n        /* \"#utility.yul\":6083:6097   */\n      add\n        /* \"#utility.yul\":6069:6097   */\n      swap1\n      pop\n        /* \"#utility.yul\":5924:6103   */\n      swap3\n      swap2\n      pop\n      pop\n      jump\t// out\n        /* \"#utility.yul\":6109:6222   */\n    tag_98:\n        /* \"#utility.yul\":6179:6183   */\n      0x00\n        /* \"#utility.yul\":6211:6215   */\n      0x20\n        /* \"#utility.yul\":6206:6209   */\n      dup3\n        /* \"#utility.yul\":6202:6216   */\n      add\n        /* \"#utility.yul\":6194:6216   */\n      swap1\n      pop\n        /* \"#utility.yul\":6109:6222   */\n      swap2\n      swap1\n      pop\n      jump\t// out\n        /* \"#utility.yul\":6258:6990   */\n    tag_99:\n        /* \"#utility.yul\":6377:6380   */\n      0x00\n        /* \"#utility.yul\":6406:6460   */\n      tag_179\n        /* \"#utility.yul\":6454:6459   */\n      dup3\n        /* \"#utility.yul\":6406:6460   */\n      tag_93\n      jump\t// in\n    tag_179:\n        /* \"#utility.yul\":6476:6562   */\n      tag_180\n        /* \"#utility.yul\":6555:6561   */\n      dup2\n        /* \"#utility.yul\":6550:6553   */\n      dup6\n        /* \"#utility.yul\":6476:6562   */\n      tag_94\n      jump\t// in\n    tag_180:\n        /* \"#utility.yul\":6469:6562   */\n      swap4\n      pop\n        /* \"#utility.yul\":6586:6642   */\n      tag_181\n        /* \"#utility.yul\":6636:6641   */\n      dup4\n        /* \"#utility.yul\":6586:6642   */\n      tag_95\n      jump\t// in\n    tag_181:\n        /* \"#utility.yul\":6665:6672   */\n      dup1\n        /* \"#utility.yul\":6696:6697   */\n      0x00\n        /* \"#utility.yul\":6681:6965   */\n    tag_182:\n        /* \"#utility.yul\":6706:6712   */\n      dup4\n        /* \"#utility.yul\":6703:6704   */\n      dup2\n        /* \"#utility.yul\":6700:6713   */\n      lt\n        /* \"#utility.yul\":6681:6965   */\n      iszero\n      tag_184\n      jumpi\n        /* \"#utility.yul\":6782:6788   */\n      dup2\n        /* \"#utility.yul\":6776:6789   */\n      mload\n        /* \"#utility.yul\":6809:6872   */\n      tag_185\n        /* \"#utility.yul\":6868:6871   */\n      dup9\n        /* \"#utility.yul\":6853:6866   */\n      dup3\n        /* \"#utility.yul\":6809:6872   */\n      tag_97\n      jump\t// in\n    tag_185:\n        /* \"#utility.yul\":6802:6872   */\n      swap8\n      pop\n        /* \"#utility.yul\":6895:6955   */\n      tag_186\n        /* \"#utility.yul\":6948:6954   */\n      dup4\n        /* \"#utility.yul\":6895:6955   */\n      tag_98\n      jump\t// in\n    tag_186:\n        /* \"#utility.yul\":6885:6955   */\n      swap3\n      pop\n        /* \"#utility.yul\":6741:6965   */\n      pop\n        /* \"#utility.yul\":6728:6729   */\n      0x01\n        /* \"#utility.yul\":6725:6726   */\n      dup2\n        /* \"#utility.yul\":6721:6730   */\n      add\n        /* \"#utility.yul\":6716:6730   */\n      swap1\n      pop\n        /* \"#utility.yul\":6681:6965   */\n      jump(tag_182)\n    tag_184:\n        /* \"#utility.yul\":6685:6699   */\n      pop\n        /* \"#utility.yul\":6981:6984   */\n      dup6\n        /* \"#utility.yul\":6974:6984   */\n      swap4\n      pop\n        /* \"#utility.yul\":6382:6990   */\n      pop\n      pop\n      pop\n        /* \"#utility.yul\":6258:6990   */\n      swap3\n      swap2\n      pop\n      pop\n      jump\t// out\n        /* \"#utility.yul\":6996:7369   */\n    tag_23:\n        /* \"#utility.yul\":7139:7143   */\n      0x00\n        /* \"#utility.yul\":7177:7179   */\n      0x20\n        /* \"#utility.yul\":7166:7175   */\n      dup3\n        /* \"#utility.yul\":7162:7180   */\n      add\n        /* \"#utility.yul\":7154:7180   */\n      swap1\n      pop\n        /* \"#utility.yul\":7226:7235   */\n      dup2\n        /* \"#utility.yul\":7220:7224   */\n      dup2\n        /* \"#utility.yul\":7216:7236   */\n      sub\n        /* \"#utility.yul\":7212:7213   */\n      0x00\n        /* \"#utility.yul\":7201:7210   */\n      dup4\n        /* \"#utility.yul\":7197:7214   */\n      add\n        /* \"#utility.yul\":7190:7237   */\n      mstore\n        /* \"#utility.yul\":7254:7362   */\n      tag_188\n        /* \"#utility.yul\":7357:7361   */\n      dup2\n        /* \"#utility.yul\":7348:7354   */\n      dup5\n        /* \"#utility.yul\":7254:7362   */\n      tag_99\n      jump\t// in\n    tag_188:\n        /* \"#utility.yul\":7246:7362   */\n      swap1\n      pop\n        /* \"#utility.yul\":6996:7369   */\n      swap3\n      swap2\n      pop\n      pop\n      jump\t// out\n        /* \"#utility.yul\":7375:7484   */\n    tag_100:\n        /* \"#utility.yul\":7456:7477   */\n      tag_190\n        /* \"#utility.yul\":7471:7476   */\n      dup2\n        /* \"#utility.yul\":7456:7477   */\n      tag_79\n      jump\t// in\n    tag_190:\n        /* \"#utility.yul\":7451:7454   */\n      dup3\n        /* \"#utility.yul\":7444:7478   */\n      mstore\n        /* \"#utility.yul\":7375:7484   */\n      pop\n      pop\n      jump\t// out\n        /* \"#utility.yul\":7490:7920   */\n    tag_27:\n        /* \"#utility.yul\":7633:7637   */\n      0x00\n        /* \"#utility.yul\":7671:7673   */\n      0x60\n        /* \"#utility.yul\":7660:7669   */\n      dup3\n        /* \"#utility.yul\":7656:7674   */\n      add\n        /* \"#utility.yul\":7648:7674   */\n      swap1\n      pop\n        /* \"#utility.yul\":7684:7755   */\n      tag_192\n        /* \"#utility.yul\":7752:7753   */\n      0x00\n        /* \"#utility.yul\":7741:7750   */\n      dup4\n        /* \"#utility.yul\":7737:7754   */\n      add\n        /* \"#utility.yul\":7728:7734   */\n      dup7\n        /* \"#utility.yul\":7684:7755   */\n      tag_92\n      jump\t// in\n    tag_192:\n        /* \"#utility.yul\":7765:7831   */\n      tag_193\n        /* \"#utility.yul\":7827:7829   */\n      0x20\n        /* \"#utility.yul\":7816:7825   */\n      dup4\n        /* \"#utility.yul\":7812:7830   */\n      add\n        /* \"#utility.yul\":7803:7809   */\n      dup6\n        /* \"#utility.yul\":7765:7831   */\n      tag_100\n      jump\t// in\n    tag_193:\n        /* \"#utility.yul\":7841:7913   */\n      tag_194\n        /* \"#utility.yul\":7909:7911   */\n      0x40\n        /* \"#utility.yul\":7898:7907   */\n      dup4\n        /* \"#utility.yul\":7894:7912   */\n      add\n        /* \"#utility.yul\":7885:7891   */\n      dup5\n        /* \"#utility.yul\":7841:7913   */\n      tag_92\n      jump\t// in\n    tag_194:\n        /* \"#utility.yul\":7490:7920   */\n      swap5\n      swap4\n      pop\n      pop\n      pop\n      pop\n      jump\t// out\n        /* \"#utility.yul\":7926:8578   */\n    tag_31:\n        /* \"#utility.yul\":8125:8129   */\n      0x00\n        /* \"#utility.yul\":8163:8166   */\n      0xa0\n        /* \"#utility.yul\":8152:8161   */\n      dup3\n        /* \"#utility.yul\":8148:8167   */\n      add\n        /* \"#utility.yul\":8140:8167   */\n      swap1\n      pop\n        /* \"#utility.yul\":8177:8248   */\n      tag_196\n        /* \"#utility.yul\":8245:8246   */\n      0x00\n        /* \"#utility.yul\":8234:8243   */\n      dup4\n        /* \"#utility.yul\":8230:8247   */\n      add\n        /* \"#utility.yul\":8221:8227   */\n      dup9\n        /* \"#utility.yul\":8177:8248   */\n      tag_92\n      jump\t// in\n    tag_196:\n        /* \"#utility.yul\":8258:8324   */\n      tag_197\n        /* \"#utility.yul\":8320:8322   */\n      0x20\n        /* \"#utility.yul\":8309:8318   */\n      dup4\n        /* \"#utility.yul\":8305:8323   */\n      add\n        /* \"#utility.yul\":8296:8302   */\n      dup8\n        /* \"#utility.yul\":8258:8324   */\n      tag_100\n      jump\t// in\n    tag_197:\n        /* \"#utility.yul\":8334:8406   */\n      tag_198\n        /* \"#utility.yul\":8402:8404   */\n      0x40\n        /* \"#utility.yul\":8391:8400   */\n      dup4\n        /* \"#utility.yul\":8387:8405   */\n      add\n        /* \"#utility.yul\":8378:8384   */\n      dup7\n        /* \"#utility.yul\":8334:8406   */\n      tag_92\n      jump\t// in\n    tag_198:\n        /* \"#utility.yul\":8416:8488   */\n      tag_199\n        /* \"#utility.yul\":8484:8486   */\n      0x60\n        /* \"#utility.yul\":8473:8482   */\n      dup4\n        /* \"#utility.yul\":8469:8487   */\n      add\n        /* \"#utility.yul\":8460:8466   */\n      dup6\n        /* \"#utility.yul\":8416:8488   */\n      tag_92\n      jump\t// in\n    tag_199:\n        /* \"#utility.yul\":8498:8571   */\n      tag_200\n        /* \"#utility.yul\":8566:8569   */\n      0x80\n        /* \"#utility.yul\":8555:8564   */\n      dup4\n        /* \"#utility.yul\":8551:8570   */\n      add\n        /* \"#utility.yul\":8542:8548   */\n      dup5\n        /* \"#utility.yul\":8498:8571   */\n      tag_92\n      jump\t// in\n    tag_200:\n        /* \"#utility.yul\":7926:8578   */\n      swap7\n      swap6\n      pop\n      pop\n      pop\n      pop\n      pop\n      pop\n      jump\t// out\n        /* \"#utility.yul\":8584:8913   */\n    tag_34:\n        /* \"#utility.yul\":8643:8649   */\n      0x00\n        /* \"#utility.yul\":8692:8694   */\n      0x20\n        /* \"#utility.yul\":8680:8689   */\n      dup3\n        /* \"#utility.yul\":8671:8678   */\n      dup5\n        /* \"#utility.yul\":8667:8690   */\n      sub\n        /* \"#utility.yul\":8663:8695   */\n      slt\n        /* \"#utility.yul\":8660:8779   */\n      iszero\n      tag_202\n      jumpi\n        /* \"#utility.yul\":8698:8777   */\n      tag_203\n      tag_70\n      jump\t// in\n    tag_203:\n        /* \"#utility.yul\":8660:8779   */\n    tag_202:\n        /* \"#utility.yul\":8818:8819   */\n      0x00\n        /* \"#utility.yul\":8843:8896   */\n      tag_204\n        /* \"#utility.yul\":8888:8895   */\n      dup5\n        /* \"#utility.yul\":8879:8885   */\n      dup3\n        /* \"#utility.yul\":8868:8877   */\n      dup6\n        /* \"#utility.yul\":8864:8886   */\n      add\n        /* \"#utility.yul\":8843:8896   */\n      tag_74\n      jump\t// in\n    tag_204:\n        /* \"#utility.yul\":8833:8896   */\n      swap2\n      pop\n        /* \"#utility.yul\":8789:8906   */\n      pop\n        /* \"#utility.yul\":8584:8913   */\n      swap3\n      swap2\n      pop\n      pop\n      jump\t// out\n        /* \"#utility.yul\":8919:9230   */\n    tag_101:\n        /* \"#utility.yul\":8996:9000   */\n      0x00\n        /* \"#utility.yul\":9086:9104   */\n      0xffffffffffffffff\n        /* \"#utility.yul\":9078:9084   */\n      dup3\n        /* \"#utility.yul\":9075:9105   */\n      gt\n        /* \"#utility.yul\":9072:9128   */\n      iszero\n      tag_206\n      jumpi\n        /* \"#utility.yul\":9108:9126   */\n      tag_207\n      tag_85\n      jump\t// in\n    tag_207:\n        /* \"#utility.yul\":9072:9128   */\n    tag_206:\n        /* \"#utility.yul\":9158:9162   */\n      0x20\n        /* \"#utility.yul\":9150:9156   */\n      dup3\n        /* \"#utility.yul\":9146:9163   */\n      mul\n        /* \"#utility.yul\":9138:9163   */\n      swap1\n      pop\n        /* \"#utility.yul\":9218:9222   */\n      0x20\n        /* \"#utility.yul\":9212:9216   */\n      dup2\n        /* \"#utility.yul\":9208:9223   */\n      add\n        /* \"#utility.yul\":9200:9223   */\n      swap1\n      pop\n        /* \"#utility.yul\":8919:9230   */\n      swap2\n      swap1\n      pop\n      jump\t// out\n        /* \"#utility.yul\":9236:9353   */\n    tag_102:\n        /* \"#utility.yul\":9345:9346   */\n      0x00\n        /* \"#utility.yul\":9342:9343   */\n      dup1\n        /* \"#utility.yul\":9335:9347   */\n      revert\n        /* \"#utility.yul\":9376:10086   */\n    tag_103:\n        /* \"#utility.yul\":9472:9477   */\n      0x00\n        /* \"#utility.yul\":9497:9578   */\n      tag_210\n        /* \"#utility.yul\":9513:9577   */\n      tag_211\n        /* \"#utility.yul\":9570:9576   */\n      dup5\n        /* \"#utility.yul\":9513:9577   */\n      tag_101\n      jump\t// in\n    tag_211:\n        /* \"#utility.yul\":9497:9578   */\n      tag_87\n      jump\t// in\n    tag_210:\n        /* \"#utility.yul\":9488:9578   */\n      swap1\n      pop\n        /* \"#utility.yul\":9598:9603   */\n      dup1\n        /* \"#utility.yul\":9627:9633   */\n      dup4\n        /* \"#utility.yul\":9620:9625   */\n      dup3\n        /* \"#utility.yul\":9613:9634   */\n      mstore\n        /* \"#utility.yul\":9661:9665   */\n      0x20\n        /* \"#utility.yul\":9654:9659   */\n      dup3\n        /* \"#utility.yul\":9650:9666   */\n      add\n        /* \"#utility.yul\":9643:9666   */\n      swap1\n      pop\n        /* \"#utility.yul\":9714:9718   */\n      0x20\n        /* \"#utility.yul\":9706:9712   */\n      dup5\n        /* \"#utility.yul\":9702:9719   */\n      mul\n        /* \"#utility.yul\":9694:9700   */\n      dup4\n        /* \"#utility.yul\":9690:9720   */\n      add\n        /* \"#utility.yul\":9743:9746   */\n      dup6\n        /* \"#utility.yul\":9735:9741   */\n      dup2\n        /* \"#utility.yul\":9732:9747   */\n      gt\n        /* \"#utility.yul\":9729:9851   */\n      iszero\n      tag_212\n      jumpi\n        /* \"#utility.yul\":9762:9841   */\n      tag_213\n      tag_102\n      jump\t// in\n    tag_213:\n        /* \"#utility.yul\":9729:9851   */\n    tag_212:\n        /* \"#utility.yul\":9877:9883   */\n      dup4\n        /* \"#utility.yul\":9860:10080   */\n    tag_214:\n        /* \"#utility.yul\":9894:9900   */\n      dup2\n        /* \"#utility.yul\":9889:9892   */\n      dup2\n        /* \"#utility.yul\":9886:9901   */\n      lt\n        /* \"#utility.yul\":9860:10080   */\n      iszero\n      tag_216\n      jumpi\n        /* \"#utility.yul\":9969:9972   */\n      dup1\n        /* \"#utility.yul\":9998:10035   */\n      tag_217\n        /* \"#utility.yul\":10031:10034   */\n      dup9\n        /* \"#utility.yul\":10019:10029   */\n      dup3\n        /* \"#utility.yul\":9998:10035   */\n      tag_74\n      jump\t// in\n    tag_217:\n        /* \"#utility.yul\":9993:9996   */\n      dup5\n        /* \"#utility.yul\":9986:10036   */\n      mstore\n        /* \"#utility.yul\":10065:10069   */\n      0x20\n        /* \"#utility.yul\":10060:10063   */\n      dup5\n        /* \"#utility.yul\":10056:10070   */\n      add\n        /* \"#utility.yul\":10049:10070   */\n      swap4\n      pop\n        /* \"#utility.yul\":9936:10080   */\n      pop\n        /* \"#utility.yul\":9920:9924   */\n      0x20\n        /* \"#utility.yul\":9915:9918   */\n      dup2\n        /* \"#utility.yul\":9911:9925   */\n      add\n        /* \"#utility.yul\":9904:9925   */\n      swap1\n      pop\n        /* \"#utility.yul\":9860:10080   */\n      jump(tag_214)\n    tag_216:\n        /* \"#utility.yul\":9864:9885   */\n      pop\n        /* \"#utility.yul\":9478:10086   */\n      pop\n      pop\n        /* \"#utility.yul\":9376:10086   */\n      swap4\n      swap3\n      pop\n      pop\n      pop\n      jump\t// out\n        /* \"#utility.yul\":10109:10479   */\n    tag_104:\n        /* \"#utility.yul\":10180:10185   */\n      0x00\n        /* \"#utility.yul\":10229:10232   */\n      dup3\n        /* \"#utility.yul\":10222:10226   */\n      0x1f\n        /* \"#utility.yul\":10214:10220   */\n      dup4\n        /* \"#utility.yul\":10210:10227   */\n      add\n        /* \"#utility.yul\":10206:10233   */\n      slt\n        /* \"#utility.yul\":10196:10318   */\n      tag_219\n      jumpi\n        /* \"#utility.yul\":10237:10316   */\n      tag_220\n      tag_82\n      jump\t// in\n    tag_220:\n        /* \"#utility.yul\":10196:10318   */\n    tag_219:\n        /* \"#utility.yul\":10354:10360   */\n      dup2\n        /* \"#utility.yul\":10341:10361   */\n      calldataload\n        /* \"#utility.yul\":10379:10473   */\n      tag_221\n        /* \"#utility.yul\":10469:10472   */\n      dup5\n        /* \"#utility.yul\":10461:10467   */\n      dup3\n        /* \"#utility.yul\":10454:10458   */\n      0x20\n        /* \"#utility.yul\":10446:10452   */\n      dup7\n        /* \"#utility.yul\":10442:10459   */\n      add\n        /* \"#utility.yul\":10379:10473   */\n      tag_103\n      jump\t// in\n    tag_221:\n        /* \"#utility.yul\":10370:10473   */\n      swap2\n      pop\n        /* \"#utility.yul\":10186:10479   */\n      pop\n        /* \"#utility.yul\":10109:10479   */\n      swap3\n      swap2\n      pop\n      pop\n      jump\t// out\n        /* \"#utility.yul\":10485:11024   */\n    tag_51:\n        /* \"#utility.yul\":10569:10575   */\n      0x00\n        /* \"#utility.yul\":10618:10620   */\n      0x20\n        /* \"#utility.yul\":10606:10615   */\n      dup3\n        /* \"#utility.yul\":10597:10604   */\n      dup5\n        /* \"#utility.yul\":10593:10616   */\n      sub\n        /* \"#utility.yul\":10589:10621   */\n      slt\n        /* \"#utility.yul\":10586:10705   */\n      iszero\n      tag_223\n      jumpi\n        /* \"#utility.yul\":10624:10703   */\n      tag_224\n      tag_70\n      jump\t// in\n    tag_224:\n        /* \"#utility.yul\":10586:10705   */\n    tag_223:\n        /* \"#utility.yul\":10772:10773   */\n      0x00\n        /* \"#utility.yul\":10761:10770   */\n      dup3\n        /* \"#utility.yul\":10757:10774   */\n      add\n        /* \"#utility.yul\":10744:10775   */\n      calldataload\n        /* \"#utility.yul\":10802:10820   */\n      0xffffffffffffffff\n        /* \"#utility.yul\":10794:10800   */\n      dup2\n        /* \"#utility.yul\":10791:10821   */\n      gt\n        /* \"#utility.yul\":10788:10905   */\n      iszero\n      tag_225\n      jumpi\n        /* \"#utility.yul\":10824:10903   */\n      tag_226\n      tag_71\n      jump\t// in\n    tag_226:\n        /* \"#utility.yul\":10788:10905   */\n    tag_225:\n        /* \"#utility.yul\":10929:11007   */\n      tag_227\n        /* \"#utility.yul\":10999:11006   */\n      dup5\n        /* \"#utility.yul\":10990:10996   */\n      dup3\n        /* \"#utility.yul\":10979:10988   */\n      dup6\n        /* \"#utility.yul\":10975:10997   */\n      add\n        /* \"#utility.yul\":10929:11007   */\n      tag_104\n      jump\t// in\n    tag_227:\n        /* \"#utility.yul\":10919:11007   */\n      swap2\n      pop\n        /* \"#utility.yul\":10715:11017   */\n      pop\n        /* \"#utility.yul\":10485:11024   */\n      swap3\n      swap2\n      pop\n      pop\n      jump\t// out\n\n    auxdata: 0xa2646970667358221220e34a3eb158cbdd4929dfadf94a1e040977883f1e5108a98117d38642394fb3dd64736f6c63430008180033\n}\n",
				"bytecode": {
					"linkReferences": {},
					"object": "608060405234801561000f575f80fd5b506109408061001d5f395ff3fe608060405234801561000f575f80fd5b506004361061009c575f3560e01c806372057987116100645780637205798714610160578063868875441461017e5780639a7846b91461019e578063adb4d990146101bc578063f4bb6e6b146101dc5761009c565b8063127b4e08146100a05780631990532b146100d057806345f907a8146100ee578063688734401461010e57806371e5ee5f14610130575b5f80fd5b6100ba60048036038101906100b5919061059b565b6101f8565b6040516100c7919061064f565b60405180910390f35b6100d8610203565b6040516100e5919061071f565b60405180910390f35b6100f6610258565b6040516101059392919061074e565b60405180910390f35b61011661026b565b604051610127959493929190610783565b60405180910390f35b61014a600480360381019061014591906107d4565b6102a9565b604051610157919061064f565b60405180910390f35b6101686102c8565b604051610175919061064f565b60405180910390f35b610186610315565b6040516101959392919061074e565b60405180910390f35b6101a6610328565b6040516101b3919061064f565b60405180910390f35b6101c4610375565b6040516101d39392919061074e565b60405180910390f35b6101f660048036038101906101f191906108c3565b610389565b005b5f9695505050505050565b60605f80548060200260200160405190810160405280929190818152602001828054801561024e57602002820191905f5260205f20905b81548152602001906001019080831161023a575b5050505050905090565b5f805f6001806002925092509250909192565b5f805f805f805f8061027b610315565b9250925092505f80600460056006925050915084848484849950995099509950995050505050509091929394565b5f81815481106102b7575f80fd5b905f5260205f20015f915090505481565b5f6103106001600260035f60016040518060400160405280600181526020017f63000000000000000000000000000000000000000000000000000000000000008152506101f8565b905090565b5f805f6001806002925092509250909192565b5f6103706001600260035f60016040518060400160405280600181526020017f63000000000000000000000000000000000000000000000000000000000000008152506101f8565b905090565b5f805f600192506001915060029050909192565b50565b5f604051905090565b5f80fd5b5f80fd5b5f819050919050565b6103af8161039d565b81146103b9575f80fd5b50565b5f813590506103ca816103a6565b92915050565b5f73ffffffffffffffffffffffffffffffffffffffff82169050919050565b5f6103f9826103d0565b9050919050565b610409816103ef565b8114610413575f80fd5b50565b5f8135905061042481610400565b92915050565b5f8115159050919050565b61043e8161042a565b8114610448575f80fd5b50565b5f8135905061045981610435565b92915050565b5f80fd5b5f80fd5b5f601f19601f8301169050919050565b7f4e487b71000000000000000000000000000000000000000000000000000000005f52604160045260245ffd5b6104ad82610467565b810181811067ffffffffffffffff821117156104cc576104cb610477565b5b80604052505050565b5f6104de61038c565b90506104ea82826104a4565b919050565b5f67ffffffffffffffff82111561050957610508610477565b5b61051282610467565b9050602081019050919050565b828183375f83830152505050565b5f61053f61053a846104ef565b6104d5565b90508281526020810184848401111561055b5761055a610463565b5b61056684828561051f565b509392505050565b5f82601f8301126105825761058161045f565b5b813561059284826020860161052d565b91505092915050565b5f805f805f8060c087890312156105b5576105b4610395565b5b5f6105c289828a016103bc565b96505060206105d389828a016103bc565b95505060406105e489828a016103bc565b94505060606105f589828a01610416565b935050608061060689828a0161044b565b92505060a087013567ffffffffffffffff81111561062757610626610399565b5b61063389828a0161056e565b9150509295509295509295565b6106498161039d565b82525050565b5f6020820190506106625f830184610640565b92915050565b5f81519050919050565b5f82825260208201905092915050565b5f819050602082019050919050565b61069a8161039d565b82525050565b5f6106ab8383610691565b60208301905092915050565b5f602082019050919050565b5f6106cd82610668565b6106d78185610672565b93506106e283610682565b805f5b838110156107125781516106f988826106a0565b9750610704836106b7565b9250506001810190506106e5565b5085935050505092915050565b5f6020820190508181035f83015261073781846106c3565b905092915050565b6107488161042a565b82525050565b5f6060820190506107615f830186610640565b61076e602083018561073f565b61077b6040830184610640565b949350505050565b5f60a0820190506107965f830188610640565b6107a3602083018761073f565b6107b06040830186610640565b6107bd6060830185610640565b6107ca6080830184610640565b9695505050505050565b5f602082840312156107e9576107e8610395565b5b5f6107f6848285016103bc565b91505092915050565b5f67ffffffffffffffff82111561081957610818610477565b5b602082029050602081019050919050565b5f80fd5b5f61084061083b846107ff565b6104d5565b905080838252602082019050602084028301858111156108635761086261082a565b5b835b8181101561088c578061087888826103bc565b845260208401935050602081019050610865565b5050509392505050565b5f82601f8301126108aa576108a961045f565b5b81356108ba84826020860161082e565b91505092915050565b5f602082840312156108d8576108d7610395565b5b5f82013567ffffffffffffffff8111156108f5576108f4610399565b5b61090184828501610896565b9150509291505056fea2646970667358221220e34a3eb158cbdd4929dfadf94a1e040977883f1e5108a98117d38642394fb3dd64736f6c63430008180033",
					"opcodes": "PUSH1 0x80 PUSH1 0x40 MSTORE CALLVALUE DUP1 ISZERO PUSH2 0xF JUMPI PUSH0 DUP1 REVERT JUMPDEST POP PUSH2 0x940 DUP1 PUSH2 0x1D PUSH0 CODECOPY PUSH0 RETURN INVALID PUSH1 0x80 PUSH1 0x40 MSTORE CALLVALUE DUP1 ISZERO PUSH2 0xF JUMPI PUSH0 DUP1 REVERT JUMPDEST POP PUSH1 0x4 CALLDATASIZE LT PUSH2 0x9C JUMPI PUSH0 CALLDATALOAD PUSH1 0xE0 SHR DUP1 PUSH4 0x72057987 GT PUSH2 0x64 JUMPI DUP1 PUSH4 0x72057987 EQ PUSH2 0x160 JUMPI DUP1 PUSH4 0x86887544 EQ PUSH2 0x17E JUMPI DUP1 PUSH4 0x9A7846B9 EQ PUSH2 0x19E JUMPI DUP1 PUSH4 0xADB4D990 EQ PUSH2 0x1BC JUMPI DUP1 PUSH4 0xF4BB6E6B EQ PUSH2 0x1DC JUMPI PUSH2 0x9C JUMP JUMPDEST DUP1 PUSH4 0x127B4E08 EQ PUSH2 0xA0 JUMPI DUP1 PUSH4 0x1990532B EQ PUSH2 0xD0 JUMPI DUP1 PUSH4 0x45F907A8 EQ PUSH2 0xEE JUMPI DUP1 PUSH4 0x68873440 EQ PUSH2 0x10E JUMPI DUP1 PUSH4 0x71E5EE5F EQ PUSH2 0x130 JUMPI JUMPDEST PUSH0 DUP1 REVERT JUMPDEST PUSH2 0xBA PUSH1 0x4 DUP1 CALLDATASIZE SUB DUP2 ADD SWAP1 PUSH2 0xB5 SWAP2 SWAP1 PUSH2 0x59B JUMP JUMPDEST PUSH2 0x1F8 JUMP JUMPDEST PUSH1 0x40 MLOAD PUSH2 0xC7 SWAP2 SWAP1 PUSH2 0x64F JUMP JUMPDEST PUSH1 0x40 MLOAD DUP1 SWAP2 SUB SWAP1 RETURN JUMPDEST PUSH2 0xD8 PUSH2 0x203 JUMP JUMPDEST PUSH1 0x40 MLOAD PUSH2 0xE5 SWAP2 SWAP1 PUSH2 0x71F JUMP JUMPDEST PUSH1 0x40 MLOAD DUP1 SWAP2 SUB SWAP1 RETURN JUMPDEST PUSH2 0xF6 PUSH2 0x258 JUMP JUMPDEST PUSH1 0x40 MLOAD PUSH2 0x105 SWAP4 SWAP3 SWAP2 SWAP1 PUSH2 0x74E JUMP JUMPDEST PUSH1 0x40 MLOAD DUP1 SWAP2 SUB SWAP1 RETURN JUMPDEST PUSH2 0x116 PUSH2 0x26B JUMP JUMPDEST PUSH1 0x40 MLOAD PUSH2 0x127 SWAP6 SWAP5 SWAP4 SWAP3 SWAP2 SWAP1 PUSH2 0x783 JUMP JUMPDEST PUSH1 0x40 MLOAD DUP1 SWAP2 SUB SWAP1 RETURN JUMPDEST PUSH2 0x14A PUSH1 0x4 DUP1 CALLDATASIZE SUB DUP2 ADD SWAP1 PUSH2 0x145 SWAP2 SWAP1 PUSH2 0x7D4 JUMP JUMPDEST PUSH2 0x2A9 JUMP JUMPDEST PUSH1 0x40 MLOAD PUSH2 0x157 SWAP2 SWAP1 PUSH2 0x64F JUMP JUMPDEST PUSH1 0x40 MLOAD DUP1 SWAP2 SUB SWAP1 RETURN JUMPDEST PUSH2 0x168 PUSH2 0x2C8 JUMP JUMPDEST PUSH1 0x40 MLOAD PUSH2 0x175 SWAP2 SWAP1 PUSH2 0x64F JUMP JUMPDEST PUSH1 0x40 MLOAD DUP1 SWAP2 SUB SWAP1 RETURN JUMPDEST PUSH2 0x186 PUSH2 0x315 JUMP JUMPDEST PUSH1 0x40 MLOAD PUSH2 0x195 SWAP4 SWAP3 SWAP2 SWAP1 PUSH2 0x74E JUMP JUMPDEST PUSH1 0x40 MLOAD DUP1 SWAP2 SUB SWAP1 RETURN JUMPDEST PUSH2 0x1A6 PUSH2 0x328 JUMP JUMPDEST PUSH1 0x40 MLOAD PUSH2 0x1B3 SWAP2 SWAP1 PUSH2 0x64F JUMP JUMPDEST PUSH1 0x40 MLOAD DUP1 SWAP2 SUB SWAP1 RETURN JUMPDEST PUSH2 0x1C4 PUSH2 0x375 JUMP JUMPDEST PUSH1 0x40 MLOAD PUSH2 0x1D3 SWAP4 SWAP3 SWAP2 SWAP1 PUSH2 0x74E JUMP JUMPDEST PUSH1 0x40 MLOAD DUP1 SWAP2 SUB SWAP1 RETURN JUMPDEST PUSH2 0x1F6 PUSH1 0x4 DUP1 CALLDATASIZE SUB DUP2 ADD SWAP1 PUSH2 0x1F1 SWAP2 SWAP1 PUSH2 0x8C3 JUMP JUMPDEST PUSH2 0x389 JUMP JUMPDEST STOP JUMPDEST PUSH0 SWAP7 SWAP6 POP POP POP POP POP POP JUMP JUMPDEST PUSH1 0x60 PUSH0 DUP1 SLOAD DUP1 PUSH1 0x20 MUL PUSH1 0x20 ADD PUSH1 0x40 MLOAD SWAP1 DUP2 ADD PUSH1 0x40 MSTORE DUP1 SWAP3 SWAP2 SWAP1 DUP2 DUP2 MSTORE PUSH1 0x20 ADD DUP3 DUP1 SLOAD DUP1 ISZERO PUSH2 0x24E JUMPI PUSH1 0x20 MUL DUP3 ADD SWAP2 SWAP1 PUSH0 MSTORE PUSH1 0x20 PUSH0 KECCAK256 SWAP1 JUMPDEST DUP2 SLOAD DUP2 MSTORE PUSH1 0x20 ADD SWAP1 PUSH1 0x1 ADD SWAP1 DUP1 DUP4 GT PUSH2 0x23A JUMPI JUMPDEST POP POP POP POP POP SWAP1 POP SWAP1 JUMP JUMPDEST PUSH0 DUP1 PUSH0 PUSH1 0x1 DUP1 PUSH1 0x2 SWAP3 POP SWAP3 POP SWAP3 POP SWAP1 SWAP2 SWAP3 JUMP JUMPDEST PUSH0 DUP1 PUSH0 DUP1 PUSH0 DUP1 PUSH0 DUP1 PUSH2 0x27B PUSH2 0x315 JUMP JUMPDEST SWAP3 POP SWAP3 POP SWAP3 POP PUSH0 DUP1 PUSH1 0x4 PUSH1 0x5 PUSH1 0x6 SWAP3 POP POP SWAP2 POP DUP5 DUP5 DUP5 DUP5 DUP5 SWAP10 POP SWAP10 POP SWAP10 POP SWAP10 POP SWAP10 POP POP POP POP POP POP SWAP1 SWAP2 SWAP3 SWAP4 SWAP5 JUMP JUMPDEST PUSH0 DUP2 DUP2 SLOAD DUP2 LT PUSH2 0x2B7 JUMPI PUSH0 DUP1 REVERT JUMPDEST SWAP1 PUSH0 MSTORE PUSH1 0x20 PUSH0 KECCAK256 ADD PUSH0 SWAP2 POP SWAP1 POP SLOAD DUP2 JUMP JUMPDEST PUSH0 PUSH2 0x310 PUSH1 0x1 PUSH1 0x2 PUSH1 0x3 PUSH0 PUSH1 0x1 PUSH1 0x40 MLOAD DUP1 PUSH1 0x40 ADD PUSH1 0x40 MSTORE DUP1 PUSH1 0x1 DUP2 MSTORE PUSH1 0x20 ADD PUSH32 0x6300000000000000000000000000000000000000000000000000000000000000 DUP2 MSTORE POP PUSH2 0x1F8 JUMP JUMPDEST SWAP1 POP SWAP1 JUMP JUMPDEST PUSH0 DUP1 PUSH0 PUSH1 0x1 DUP1 PUSH1 0x2 SWAP3 POP SWAP3 POP SWAP3 POP SWAP1 SWAP2 SWAP3 JUMP JUMPDEST PUSH0 PUSH2 0x370 PUSH1 0x1 PUSH1 0x2 PUSH1 0x3 PUSH0 PUSH1 0x1 PUSH1 0x40 MLOAD DUP1 PUSH1 0x40 ADD PUSH1 0x40 MSTORE DUP1 PUSH1 0x1 DUP2 MSTORE PUSH1 0x20 ADD PUSH32 0x6300000000000000000000000000000000000000000000000000000000000000 DUP2 MSTORE POP PUSH2 0x1F8 JUMP JUMPDEST SWAP1 POP SWAP1 JUMP JUMPDEST PUSH0 DUP1 PUSH0 PUSH1 0x1 SWAP3 POP PUSH1 0x1 SWAP2 POP PUSH1 0x2 SWAP1 POP SWAP1 SWAP2 SWAP3 JUMP JUMPDEST POP JUMP JUMPDEST PUSH0 PUSH1 0x40 MLOAD SWAP1 POP SWAP1 JUMP JUMPDEST PUSH0 DUP1 REVERT JUMPDEST PUSH0 DUP1 REVERT JUMPDEST PUSH0 DUP2 SWAP1 POP SWAP2 SWAP1 POP JUMP JUMPDEST PUSH2 0x3AF DUP2 PUSH2 0x39D JUMP JUMPDEST DUP2 EQ PUSH2 0x3B9 JUMPI PUSH0 DUP1 REVERT JUMPDEST POP JUMP JUMPDEST PUSH0 DUP2 CALLDATALOAD SWAP1 POP PUSH2 0x3CA DUP2 PUSH2 0x3A6 JUMP JUMPDEST SWAP3 SWAP2 POP POP JUMP JUMPDEST PUSH0 PUSH20 0xFFFFFFFFFFFFFFFFFFFFFFFFFFFFFFFFFFFFFFFF DUP3 AND SWAP1 POP SWAP2 SWAP1 POP JUMP JUMPDEST PUSH0 PUSH2 0x3F9 DUP3 PUSH2 0x3D0 JUMP JUMPDEST SWAP1 POP SWAP2 SWAP1 POP JUMP JUMPDEST PUSH2 0x409 DUP2 PUSH2 0x3EF JUMP JUMPDEST DUP2 EQ PUSH2 0x413 JUMPI PUSH0 DUP1 REVERT JUMPDEST POP JUMP JUMPDEST PUSH0 DUP2 CALLDATALOAD SWAP1 POP PUSH2 0x424 DUP2 PUSH2 0x400 JUMP JUMPDEST SWAP3 SWAP2 POP POP JUMP JUMPDEST PUSH0 DUP2 ISZERO ISZERO SWAP1 POP SWAP2 SWAP1 POP JUMP JUMPDEST PUSH2 0x43E DUP2 PUSH2 0x42A JUMP JUMPDEST DUP2 EQ PUSH2 0x448 JUMPI PUSH0 DUP1 REVERT JUMPDEST POP JUMP JUMPDEST PUSH0 DUP2 CALLDATALOAD SWAP1 POP PUSH2 0x459 DUP2 PUSH2 0x435 JUMP JUMPDEST SWAP3 SWAP2 POP POP JUMP JUMPDEST PUSH0 DUP1 REVERT JUMPDEST PUSH0 DUP1 REVERT JUMPDEST PUSH0 PUSH1 0x1F NOT PUSH1 0x1F DUP4 ADD AND SWAP1 POP SWAP2 SWAP1 POP JUMP JUMPDEST PUSH32 0x4E487B7100000000000000000000000000000000000000000000000000000000 PUSH0 MSTORE PUSH1 0x41 PUSH1 0x4 MSTORE PUSH1 0x24 PUSH0 REVERT JUMPDEST PUSH2 0x4AD DUP3 PUSH2 0x467 JUMP JUMPDEST DUP2 ADD DUP2 DUP2 LT PUSH8 0xFFFFFFFFFFFFFFFF DUP3 GT OR ISZERO PUSH2 0x4CC JUMPI PUSH2 0x4CB PUSH2 0x477 JUMP JUMPDEST JUMPDEST DUP1 PUSH1 0x40 MSTORE POP POP POP JUMP JUMPDEST PUSH0 PUSH2 0x4DE PUSH2 0x38C JUMP JUMPDEST SWAP1 POP PUSH2 0x4EA DUP3 DUP3 PUSH2 0x4A4 JUMP JUMPDEST SWAP2 SWAP1 POP JUMP JUMPDEST PUSH0 PUSH8 0xFFFFFFFFFFFFFFFF DUP3 GT ISZERO PUSH2 0x509 JUMPI PUSH2 0x508 PUSH2 0x477 JUMP JUMPDEST JUMPDEST PUSH2 0x512 DUP3 PUSH2 0x467 JUMP JUMPDEST SWAP1 POP PUSH1 0x20 DUP2 ADD SWAP1 POP SWAP2 SWAP1 POP JUMP JUMPDEST DUP3 DUP2 DUP4 CALLDATACOPY PUSH0 DUP4 DUP4 ADD MSTORE POP POP POP JUMP JUMPDEST PUSH0 PUSH2 0x53F PUSH2 0x53A DUP5 PUSH2 0x4EF JUMP JUMPDEST PUSH2 0x4D5 JUMP JUMPDEST SWAP1 POP DUP3 DUP2 MSTORE PUSH1 0x20 DUP2 ADD DUP5 DUP5 DUP5 ADD GT ISZERO PUSH2 0x55B JUMPI PUSH2 0x55A PUSH2 0x463 JUMP JUMPDEST JUMPDEST PUSH2 0x566 DUP5 DUP3 DUP6 PUSH2 0x51F JUMP JUMPDEST POP SWAP4 SWAP3 POP POP POP JUMP JUMPDEST PUSH0 DUP3 PUSH1 0x1F DUP4 ADD SLT PUSH2 0x582 JUMPI PUSH2 0x581 PUSH2 0x45F JUMP JUMPDEST JUMPDEST DUP2 CALLDATALOAD PUSH2 0x592 DUP5 DUP3 PUSH1 0x20 DUP7 ADD PUSH2 0x52D JUMP JUMPDEST SWAP2 POP POP SWAP3 SWAP2 POP POP JUMP JUMPDEST PUSH0 DUP1 PUSH0 DUP1 PUSH0 DUP1 PUSH1 0xC0 DUP8 DUP10 SUB SLT ISZERO PUSH2 0x5B5 JUMPI PUSH2 0x5B4 PUSH2 0x395 JUMP JUMPDEST JUMPDEST PUSH0 PUSH2 0x5C2 DUP10 DUP3 DUP11 ADD PUSH2 0x3BC JUMP JUMPDEST SWAP7 POP POP PUSH1 0x20 PUSH2 0x5D3 DUP10 DUP3 DUP11 ADD PUSH2 0x3BC JUMP JUMPDEST SWAP6 POP POP PUSH1 0x40 PUSH2 0x5E4 DUP10 DUP3 DUP11 ADD PUSH2 0x3BC JUMP JUMPDEST SWAP5 POP POP PUSH1 0x60 PUSH2 0x5F5 DUP10 DUP3 DUP11 ADD PUSH2 0x416 JUMP JUMPDEST SWAP4 POP POP PUSH1 0x80 PUSH2 0x606 DUP10 DUP3 DUP11 ADD PUSH2 0x44B JUMP JUMPDEST SWAP3 POP POP PUSH1 0xA0 DUP8 ADD CALLDATALOAD PUSH8 0xFFFFFFFFFFFFFFFF DUP2 GT ISZERO PUSH2 0x627 JUMPI PUSH2 0x626 PUSH2 0x399 JUMP JUMPDEST JUMPDEST PUSH2 0x633 DUP10 DUP3 DUP11 ADD PUSH2 0x56E JUMP JUMPDEST SWAP2 POP POP SWAP3 SWAP6 POP SWAP3 SWAP6 POP SWAP3 SWAP6 JUMP JUMPDEST PUSH2 0x649 DUP2 PUSH2 0x39D JUMP JUMPDEST DUP3 MSTORE POP POP JUMP JUMPDEST PUSH0 PUSH1 0x20 DUP3 ADD SWAP1 POP PUSH2 0x662 PUSH0 DUP4 ADD DUP5 PUSH2 0x640 JUMP JUMPDEST SWAP3 SWAP2 POP POP JUMP JUMPDEST PUSH0 DUP2 MLOAD SWAP1 POP SWAP2 SWAP1 POP JUMP JUMPDEST PUSH0 DUP3 DUP3 MSTORE PUSH1 0x20 DUP3 ADD SWAP1 POP SWAP3 SWAP2 POP POP JUMP JUMPDEST PUSH0 DUP2 SWAP1 POP PUSH1 0x20 DUP3 ADD SWAP1 POP SWAP2 SWAP1 POP JUMP JUMPDEST PUSH2 0x69A DUP2 PUSH2 0x39D JUMP JUMPDEST DUP3 MSTORE POP POP JUMP JUMPDEST PUSH0 PUSH2 0x6AB DUP4 DUP4 PUSH2 0x691 JUMP JUMPDEST PUSH1 0x20 DUP4 ADD SWAP1 POP SWAP3 SWAP2 POP POP JUMP JUMPDEST PUSH0 PUSH1 0x20 DUP3 ADD SWAP1 POP SWAP2 SWAP1 POP JUMP JUMPDEST PUSH0 PUSH2 0x6CD DUP3 PUSH2 0x668 JUMP JUMPDEST PUSH2 0x6D7 DUP2 DUP6 PUSH2 0x672 JUMP JUMPDEST SWAP4 POP PUSH2 0x6E2 DUP4 PUSH2 0x682 JUMP JUMPDEST DUP1 PUSH0 JUMPDEST DUP4 DUP2 LT ISZERO PUSH2 0x712 JUMPI DUP2 MLOAD PUSH2 0x6F9 DUP9 DUP3 PUSH2 0x6A0 JUMP JUMPDEST SWAP8 POP PUSH2 0x704 DUP4 PUSH2 0x6B7 JUMP JUMPDEST SWAP3 POP POP PUSH1 0x1 DUP2 ADD SWAP1 POP PUSH2 0x6E5 JUMP JUMPDEST POP DUP6 SWAP4 POP POP POP POP SWAP3 SWAP2 POP POP JUMP JUMPDEST PUSH0 PUSH1 0x20 DUP3 ADD SWAP1 POP DUP2 DUP2 SUB PUSH0 DUP4 ADD MSTORE PUSH2 0x737 DUP2 DUP5 PUSH2 0x6C3 JUMP JUMPDEST SWAP1 POP SWAP3 SWAP2 POP POP JUMP JUMPDEST PUSH2 0x748 DUP2 PUSH2 0x42A JUMP JUMPDEST DUP3 MSTORE POP POP JUMP JUMPDEST PUSH0 PUSH1 0x60 DUP3 ADD SWAP1 POP PUSH2 0x761 PUSH0 DUP4 ADD DUP7 PUSH2 0x640 JUMP JUMPDEST PUSH2 0x76E PUSH1 0x20 DUP4 ADD DUP6 PUSH2 0x73F JUMP JUMPDEST PUSH2 0x77B PUSH1 0x40 DUP4 ADD DUP5 PUSH2 0x640 JUMP JUMPDEST SWAP5 SWAP4 POP POP POP POP JUMP JUMPDEST PUSH0 PUSH1 0xA0 DUP3 ADD SWAP1 POP PUSH2 0x796 PUSH0 DUP4 ADD DUP9 PUSH2 0x640 JUMP JUMPDEST PUSH2 0x7A3 PUSH1 0x20 DUP4 ADD DUP8 PUSH2 0x73F JUMP JUMPDEST PUSH2 0x7B0 PUSH1 0x40 DUP4 ADD DUP7 PUSH2 0x640 JUMP JUMPDEST PUSH2 0x7BD PUSH1 0x60 DUP4 ADD DUP6 PUSH2 0x640 JUMP JUMPDEST PUSH2 0x7CA PUSH1 0x80 DUP4 ADD DUP5 PUSH2 0x640 JUMP JUMPDEST SWAP7 SWAP6 POP POP POP POP POP POP JUMP JUMPDEST PUSH0 PUSH1 0x20 DUP3 DUP5 SUB SLT ISZERO PUSH2 0x7E9 JUMPI PUSH2 0x7E8 PUSH2 0x395 JUMP JUMPDEST JUMPDEST PUSH0 PUSH2 0x7F6 DUP5 DUP3 DUP6 ADD PUSH2 0x3BC JUMP JUMPDEST SWAP2 POP POP SWAP3 SWAP2 POP POP JUMP JUMPDEST PUSH0 PUSH8 0xFFFFFFFFFFFFFFFF DUP3 GT ISZERO PUSH2 0x819 JUMPI PUSH2 0x818 PUSH2 0x477 JUMP JUMPDEST JUMPDEST PUSH1 0x20 DUP3 MUL SWAP1 POP PUSH1 0x20 DUP2 ADD SWAP1 POP SWAP2 SWAP1 POP JUMP JUMPDEST PUSH0 DUP1 REVERT JUMPDEST PUSH0 PUSH2 0x840 PUSH2 0x83B DUP5 PUSH2 0x7FF JUMP JUMPDEST PUSH2 0x4D5 JUMP JUMPDEST SWAP1 POP DUP1 DUP4 DUP3 MSTORE PUSH1 0x20 DUP3 ADD SWAP1 POP PUSH1 0x20 DUP5 MUL DUP4 ADD DUP6 DUP2 GT ISZERO PUSH2 0x863 JUMPI PUSH2 0x862 PUSH2 0x82A JUMP JUMPDEST JUMPDEST DUP4 JUMPDEST DUP2 DUP2 LT ISZERO PUSH2 0x88C JUMPI DUP1 PUSH2 0x878 DUP9 DUP3 PUSH2 0x3BC JUMP JUMPDEST DUP5 MSTORE PUSH1 0x20 DUP5 ADD SWAP4 POP POP PUSH1 0x20 DUP2 ADD SWAP1 POP PUSH2 0x865 JUMP JUMPDEST POP POP POP SWAP4 SWAP3 POP POP POP JUMP JUMPDEST PUSH0 DUP3 PUSH1 0x1F DUP4 ADD SLT PUSH2 0x8AA JUMPI PUSH2 0x8A9 PUSH2 0x45F JUMP JUMPDEST JUMPDEST DUP2 CALLDATALOAD PUSH2 0x8BA DUP5 DUP3 PUSH1 0x20 DUP7 ADD PUSH2 0x82E JUMP JUMPDEST SWAP2 POP POP SWAP3 SWAP2 POP POP JUMP JUMPDEST PUSH0 PUSH1 0x20 DUP3 DUP5 SUB SLT ISZERO PUSH2 0x8D8 JUMPI PUSH2 0x8D7 PUSH2 0x395 JUMP JUMPDEST JUMPDEST PUSH0 DUP3 ADD CALLDATALOAD PUSH8 0xFFFFFFFFFFFFFFFF DUP2 GT ISZERO PUSH2 0x8F5 JUMPI PUSH2 0x8F4 PUSH2 0x399 JUMP JUMPDEST JUMPDEST PUSH2 0x901 DUP5 DUP3 DUP6 ADD PUSH2 0x896 JUMP JUMPDEST SWAP2 POP POP SWAP3 SWAP2 POP POP JUMP INVALID LOG2 PUSH5 0x6970667358 0x22 SLT KECCAK256 0xE3 BLOBBASEFEE RETURNDATACOPY 0xB1 PC 0xCB 0xDD BLOBHASH 0x29 0xDF 0xAD 0xF9 BLOBBASEFEE 0x1E DIV MULMOD PUSH24 0x883F1E5108A98117D38642394FB3DD64736F6C6343000818 STOP CALLER "
				},
				"gasEstimates": {
					"creation": {
						"codeDepositCost": "473600",
						"executionCost": "503",
						"totalCost": "474103"
					},
					"external": {
						"arr(uint256)": "infinite",
						"arrayInput(uint256[])": "infinite",
						"arrayOutput()": "infinite",
						"assigned()": "infinite",
						"callFunc()": "487",
						"callFuncWithKeyValue()": "443",
						"destructuringAssignments()": "infinite",
						"named()": "infinite",
						"returnMany()": "infinite",
						"someFuncWithManyInputs(uint256,uint256,uint256,address,bool,string)": "infinite"
					}
				},
				"methodIdentifiers": {
					"arr(uint256)": "71e5ee5f",
					"arrayInput(uint256[])": "f4bb6e6b",
					"arrayOutput()": "1990532b",
					"assigned()": "adb4d990",
					"callFunc()": "9a7846b9",
					"callFuncWithKeyValue()": "72057987",
					"destructuringAssignments()": "68873440",
					"named()": "45f907a8",
					"returnMany()": "86887544",
					"someFuncWithManyInputs(uint256,uint256,uint256,address,bool,string)": "127b4e08"
				}
			},
			"storageLayout": {
				"storage": [
					{
						"astId": 102,
						"contract": "task2/function.sol:Function",
						"label": "arr",
						"offset": 0,
						"slot": "0",
						"type": "t_array(t_uint256)dyn_storage"
					}
				],
				"types": {
					"t_array(t_uint256)dyn_storage": {
						"base": "t_uint256",
						"encoding": "dynamic_array",
						"label": "uint256[]",
						"numberOfBytes": "32"
					},
					"t_uint256": {
						"encoding": "inplace",
						"label": "uint256",
						"numberOfBytes": "32"
					}
				}
			},
			"userdoc": {
				"kind": "user",
				"methods": {},
				"version": 1
			}
		}
	}
}